S00F0000536C61766520312E73726563C9
S11300000C9402010C9423010C9423010C942301FD
S11300100C9423010C9423010C9423010C942301CC
S11300200C9423010C9423010C9423010C942301BC
S11300300C9423010C9423010C9423010C942301AC
S11300400C9423010C9423010C9423010C9423019C
S11300500C9423010C9423010C9423010C9423018C
S11300600C9423010C9423010C9423010C9423017C
S11300700C9423010C9423010C9423010C9423016C
S11300800C9423010C9423010C9423010C9423015C
S11300900C9423010C9423010C9423010C9423014C
S11300A00C9423010C9423010C9423010C9423013C
S11300B00C9423010C9423010C9423010C9423012C
S11300C00C9423010C9423010C9423010C9423011C
S11300D00C9423010C9423010C9423010C9423010C
S11300E00C9423010C9423010C9423010C942301FC
S11300F00C9423010C9423010C9423010C942301EC
S11301000C9423010C9423010C9423010C942301DB
S11301100C9423010C9423010C9423010C942301CB
S11301200C9423010C9423010C9423010C942301BB
S11301300C9423010C9423010C9423010C942301AB
S11301400C9423010C9423010C9423010C9423019B
S11301500C9423010C9423010C9423010C9423018B
S11301600C9423010C9423010C9423010C9423017B
S11301700C9423010C9423010C9423010C9423016B
S11301800C9423010C9423010C9423010C9423015B
S11301900C9423010C9423010C9423010C9423014B
S11301A00C943C070C9423010C9423010C9423011C
S11301B00C9423010C9423010C9423010C9423012B
S11301C00C9423010C9423010C9423010C9423011B
S11301D00C9423010C9423010C9423010C944D04DE
S11301E00C9477040C9423010C9423010C942301A4
S11301F00C9423010C9423010C9423010C942C04DF
S11302000C94440411241FBECFEFCDBFDFE5DEBF45
S113021000E00CBF10E2A0E0B0E2E8EFFDE100E096
S11302200BBF02C007900D92A439B107D9F722E29F
S1130230A4E9B0E201C01D92AB3AB207E1F70E9413
S113024028080C94FA0E0C940000E0E5F0E08BEC26
S11302508283808188608083818183FFFDCFE0E594
S1130260F0E082EC8583808180618083818184FFDA
S1130270FDCF88ED84BF84E080934000E0E5F0E0AA
S113028080818E7F808380818D7F808308951F93FA
S1130290CF93DF93C0EAD6E010E21E838F710E94F1
S11302A01E048FEF0E941E041D83DF91CF911F91C6
S11302B00895DF92EF92FF920F931F93CF93DF93F2
S11302C07B01C42F90E29093A6068F7180620E94F6
S11302D01E04D82E8FEF8C0FCC2369F0E701082F72
S11302E010E00F5F1F4F0E0D1F1D89910E941E0409
S11302F0C017D107D1F780E28093A5068D2DDF9139
S1130300CF911F910F91FF90EF90DF900895FF928E
S11303100F931F93CF93DF93F62EC0EAD6E010E23B
S11303201E838F7180620E941E04082F8F2D0E94ED
S11303301E041D83802FDF91CF911F910F91FF9099
S11303400895BF92CF92DF92EF92FF920F931F9383
S1130350CF93DF936C01842FC09107201C2F6C175F
S113036008F4162F90919920911125C00C2F011B90
S113037090E29093A6060E941E04B82EEE24EA94FE
S1130380E10E111102C00EC000E0E601F12C8FEF66
S1130390E81AF80AEC0CFD1C89910E941E04EC1664
S11303A0FD06D1F7002391F0C02F80E00E941E04C7
S11303B0C150D9F70BC090E29093A6060E941E0488
S11303C0B82EEE24EA94E10E1111DECF80E2809380
S11303D0A5068B2DDF91CF911F910F91FF90EF9088
S11303E0DF90CF90BF9008951F93CF93DF93C0EA1F
S11303F0D6E010E21E8382EE0E941E041D83DF916C
S1130400CF911F9108951F93CF93DF93C0EAD6E055
S113041010E21E8381EE0E941E041D83DF91CF91A2
S11304201F91089580E00E94470181FD0CC0682F50
S1130430636080E00E9487018FE79EE30197F1F7F4
S113044000C0000005C0682F616080E00E94870141
S11304508FE094E00197F1F700C0000060E787E0C7
S11304600E9487014091062064E970E28AE00E94BC
S113047059010E94F4010E94030280E88093A506BA
S11304808FE094E00197F1F700C0000008950F9306
S11304901F93CF93DF93EC01162F042F80E00E946B
S11304A0470181FD0DC0682F6E7F626080E00E946D
S11304B087018FE79EE30197F1F700C0000005C0B4
S11304C0682F6E7F80E00E9487018FE094E001979F
S11304D0F1F700C00000402F612FCE010E94A1015E
S11304E0E0EAF6E080E885839AE69A95F1F700C0A1
S11304F08683DF91CF911F910F910895EF92FF9220
S11305000F931F93CF93DF937C018B01EA0160E784
S113051087E00E948701982F9072F7019083982FAB
S11305209071F801908380748883DF91CF911F913B
S11305300F91FF90EF900895CF93DF93EC014091DA
S11305400620BC018AE00E94590140910620BE01A8
S113055080E10E94590160910720603220F481E11A
S11305600E94870104C060E281E10E948701DF915B
S1130570CF9108950F931F93CF93DF93C82F8B01CF
S1130580811108C04091062050E084E990E20E9465
S1130590E70B04C0873078F5823058F4EC2FF0E094
S11305A0E15DFF4D40910620B80180810E94590110
S11305B008C0E82FF0E0E15DFF4D41E080810E943A
S11305C05901D0E0FE01E75DFF4D60910720808175
S11305D00E94870182E00E944701CD5DDF4D61E00A
S11305E070E0088002C0660F771F0A94E2F7682B58
S11305F082E00E948701DF91CF911F910F910895AE
S11306001F93CF93DF93C0EAD6E010E21E8380E508
S11306100E941E0483E70E941E041D83DF91CF9174
S11306201F9108958DE10E944701682F64608DE158
S11306300E9487018DE10E94470181110AC00E9436
S113064000038DE10E944701682F64608DE10E94E0
S113065087018CE10E944701682F6F638CE10E943F
S1130660870181E080939920089588232CF0682FD6
S113067085E00E94870108956FE785E00E94870165
S11306800895882329F06FE381E00E94870108958B
S113069060E081E00E9487010895CF93C82F86E02F
S11306A00E944701897FC670682F6C2B86E00E94E8
S11306B08701CF910895CF93C82F86E00E94470108
S11306C0877D9C2F9872682F692B86E00E94870192
S11306D086E00E94470191E0C81390E0892FCF91F2
S11306E00895CF93C82F80E00E944701837FCC7088
S11306F0682F6C2B80E00E948701CF910895682BAE
S113070084E00E948701089584E00E944701282F15
S113071022952F7030E02F5F3F4F9AEF929FA001F8
S1130720939F500D11248F7090E001969C01429F7D
S1130730C001439F900D529F900D11240895CF93B3
S1130740DF930E9484039C0136952795369527955F
S1130750ABE7B4E10E94B70AEC01D695C7952097A0
S113076071F087E00E9447012197EFE1F3E03197B0
S1130770F1F700C00000807311F4209791F787E02F
S11307800E944701C82F0E94F4010E94030260E7FF
S113079087E00E9487018C2F8072DF91CF910895AA
S11307A040EA0E9447020E949F03089560E787E0A1
S11307B00E94870108958FE39CE90197F1F700C037
S11307C000006FE584E00E94870186E00E944D03EB
S11307D080E20E945B03882319F081E08093082063
S11307E080E00E945B038CE00E94710360E08CE176
S11307F00E9487018CE40E9435030E94D6030E9464
S1130800F4010E9403020895E0E4F6E088E08183A5
S113081084E0828382E08183E0EAF6E080E28183FF
S113082080E4828380E88183E0EAF8E088E18483DD
S113083080EC8583178281E0868308958093A008E5
S1130840E0EAF8E0818186FFFDCFE0EAF8E081810B
S11308508064818380810895CF93C82F8AE990E2D0
S11308600E9481068823D1F3CA3029F46DE08AE915
S113087090E20E94D8046C2F8AE990E20E94D80486
S113088080E090E0CF9108958AE990E20E94C70445
S1130890811521E09207C1F308951F920F920FB6BC
S11308A00F9211240BB60F922F933F934F935F93A4
S11308B06F937F938F939F93AF93BF93EF93FF9324
S11308C08AE990E20E94CF06FF91EF91BF91AF9128
S11308D09F918F917F916F915F914F913F912F9154
S11308E00F900BBE0F900FBE0F901F9018951F9284
S11308F00F920FB60F9211240BB60F922F933F93C2
S11309004F935F936F937F938F939F93AF93BF9313
S1130910EF93FF938AE990E20E94EA06FF91EF9138
S1130920BF91AF919F918F917F916F915F914F9103
S11309303F912F910F900BBE0F900FBE0F901F9001
S11309401895CF92EF92FF920F931F939B01AC01E6
S1130950C12CE12C12ECF12E01E010E060EA7BE006
S11309608AE990E20E941206E5EAF2E289E090E266
S11309708083918382839383E0EAF0E082818160C3
S113098082831F910F91FF90EF90CF900895CF93A2
S1130990DF93EC010E94B706882329F0CE010E9460
S11309A0C20690E002C080E091E0DF91CF9108950B
S11309B01F93CF93DF93EC01162F0E9481068823A7
S11309C021F0612FCE010E948E06DF91CF911F91FD
S11309D00895803A28E0920739F4E0E4F6E088E0EC
S11309E0818384E082830895803B28E0920739F470
S11309F0E0E4F6E080E8818380E482830895803A2D
S1130A0029E0920739F4E0E6F6E088E0818384E0A7
S1130A1082830895803B29E0920739F4E0E6F6E00A
S1130A2080E8818380E482830895803A2AE09207F3
S1130A3039F4E0E8F6E088E0818384E08283089575
S1130A40803B2AE0920739F4E0E8F6E080E881830D
S1130A5080E482830895803A9B4031F4E0EAF6E032
S1130A6088E0818384E0828308954F925F926F923D
S1130A707F928F929F92AF92BF92CF92DF92EF922A
S1130A80FF920F931F93CF93DF9349015A012E2DA9
S1130A902170C0E1D0E002C0D595C7952A95E2F750
S1130AA000230CF042C00E946F096B017C01DD271A
S1130AB0BE01DD0F880B990B0E9471092B013C01CB
S1130AC0C501B4010E946F099B01AC01C301B201CD
S1130AD00E94FD099B01AC01C701B6010E94CE082A
S1130AE020E030E040E85FE30E9461086B017C0194
S1130AF0112701950CF4109561E070E002C0660FB7
S1130B00771F0A95E2F7072E000C880B990B0E94B9
S1130B1071099B01AC01C701B6010E94FD090E9445
S1130B206A0A0E944009CB013EC00E946F096B0112
S1130B307C01BE017727072E000C880B990B0E94BD
S1130B4071092B013C01C501B4010E946F099B018D
S1130B50AC01C301B2010E94FD099B01AC01C701B4
S1130B60B6010E94CE086B017C0161E070E002C016
S1130B70660F771F0A95E2F7072E000C880B990B76
S1130B800E9471099B01AC01C701B6010E94CE0805
S1130B9020E030E040E85FE30E9461080E946A0AB6
S1130BA00E944009CB01DF91CF911F910F91FF90DB
S1130BB0EF90DF90CF90BF90AF909F908F907F90F9
S1130BC06F905F904F9008954F925F926F927F92D3
S1130BD08F929F92AF92BF92EF920F93CF93DF9336
S1130BE02B013C0149015A01D02FC9EFED2E0C2FE6
S1130BF0A5019401C301B2010E94350581159041FC
S1130C0018F0CF5FC83091F78C2FDF91CF910F91FF
S1130C10EF90BF90AF909F908F907F906F905F9078
S1130C204F9008952F923F924F925F926F927F92CE
S1130C308F929F92AF92BF92CF92EF92FF920F93B7
S1130C401F93CF93DF93EC011B0129013A01470164
S1130C505801EC2C0C2DA5019401C301B2010E9492
S1130C60E405182F082FA5019401C301B2010E94C5
S1130C703505F82E092F41E0B101CE010E9473061B
S1130C80E881F98183E08583E881F9818481806149
S1130C908483E881F981848188608483E881F9818F
S1130CA083818F7C80618383E881F981F682E88186
S1130CB0F9811295107F102B1783888199810E94E6
S1130CC0E904DF91CF911F910F91FF90EF90CF90A6
S1130CD0BF90AF909F908F907F906F905F904F9058
S1130CE03F902F900895FC01608371834283EC5FF1
S1130CF0FD4F108231971082339610823197108203
S1130D000895FC01EB5FFD4F20813196308191E025
S1130D10920F81E0931301C080E00895CF93DF9395
S1130D20FC01DC01AB5FBD4F9C919F5F11962C9140
S1130D3081E0921301C080E09217B1F0EF01CB5F24
S1130D40DD4F9881DF01A90FB11DAD5FBE4F6C93DC
S1130D509F5F9883A081B18113969C9113979C7F88
S1130D602281922B13969C93DF91CF910895FC01DD
S1130D70ED5FFD4F20813196908181E0291301C000
S1130D8080E00895FC01EC5FFD4F2081DC01A20F9F
S1130D90B11D13968C9190819F5F90830895FC01FF
S1130DA0ED5FFD4F20812F5F31963081DC01ED91A5
S1130DB0FC9111974081231759F0FC01ED5FFD4F21
S1130DC03081A30FB11D13964C93208381E00895C5
S1130DD080E00895CF93DF93FC01EA5FFD4F3081FB
S1130DE031972081321307C0DC01ED91FC9183819E
S1130DF08C7F838311C0FC01EA5FFD4F2081DC01FD
S1130E00A20FB11DAD5FBE4F2C91EC01A881B98139
S1130E102C9380818F5F8083DF91CF910895A0EC24
S1130E20B1E092E01A969C931A97E82FF0E084912F
S1130E301A961C920895CF93DF9380E20E940F07C5
S1130E40C0E0D2E08C8781E20E940F078D8797E093
S1130E509093020687E189AB82E088AB2FE029A753
S1130E6088A799A388A390E19A8399838C8381E0CE
S1130E708883DF91CF9108951F920F920FB60F923E
S1130E8011240BB60F922F933F934F935F936F935D
S1130E907F938F939F93AF93BF93EF93FF93CF93DE
S1130EA0DF9300D0CDB7DEB7AE014D5F5F4FBE011B
S1130EB06E5F7F4FCE0101960E947E028B811F924E
S1130EC08F938A811F928F9389811F928F9385E3D9
S1130ED090E29F938F930E94020CCDBFDEBF2396B6
S1130EE0CDBFDEBFDF91CF91FF91EF91BF91AF9165
S1130EF09F918F917F916F915F914F913F912F912E
S1130F000F900BBE0F900FBE0F901F901895E0E648
S1130F10F6E088E0828388E1838B08950E940404CC
S1130F200E94DB0368E080E30E947F0384E00E9468
S1130F304D0380E20E945B038CE00E94710380E316
S1130F400E94350381E00E9441030E9412030E9423
S1130F50D6030E94F4010E940302E0EAF6E08285CF
S1130F608064828782E0868B8185816081878DE1C0
S1130F7090E20E949C0267E170E281E00E94BA0262
S1130F800E94120208958091680683FD11C02FEF1C
S1130F9089EF90E0215080409040E1F700C00000CC
S1130FA0E8E6F6E0808183FFFDCF81E090E00895DC
S1130FB080E090E00895EF92FF920F931F93CF93F8
S1130FC0DF938C01EB01FC0101900020E9F73197DC
S1130FD0CF01801B910BFB0101900020E9F73197B1
S1130FE0E61BF70B8E0F9F1F01960E94C60A7C0119
S1130FF0B8010E94FB0BBE01C7010E94F00BC701A0
S1131000DF91CF911F910F91FF90EF900895CF93AF
S1131010DF93EB01BC0189E590E20E94DB07BE018E
S11310200E94DB07FC0101900020E9F73197BF0122
S1131030681B790B0E94D0032FEF87E893E12150BE
S113104080409040E1F700C00000DF91CF91089507
S11310500E9425010E941B070E9487070E948E0799
S113106060E078E488EE91E00E94A104E0EAF0E018
S113107082818160828378948CE590E29F938F9340
S11310800E94020C89E590E29F938F9388E690E298
S11310909F938F930E94020C0F900F900F900F90CC
S11310A00F900F900E94C307892BE1F38BE790E226
S11310B00E94160C6BE870E281E990E20E94070836
S11310C0F1CF5058BB27AA270E9479080C94C30972
S11310D00E94B50938F00E94BC0920F039F49F3F02
S11310E019F426F40C94B2090EF4E095E7FB0C9481
S11310F0AC09E92F0E94D40958F3BA1762077307A1
S11311008407950720F079F4A6F50C94F6090EF4FB
S1131110E0950B2EBA2FA02D0B01B90190010C0103
S1131120CA01A0011124FF27591B99F0593F50F41B
S1131130503E68F11A16F040A22F232F342F442773
S1131140585FF3CF469537952795A795F04053956B
S1131150C9F77EF41F16BA0B620B730B840BBAF03B
S11311609150A1F0FF0FBB1F661F771F881FC2F7A6
S11311700EC0BA0F621F731F841F48F487957795BA
S11311806795B795F7959E3F08F0B0CF9395880F74
S113119008F09927EE0F9795879508950E94E20825
S11311A00C94C3090E94BC0958F00E94B50940F090
S11311B029F45F3F29F00C94AC0951110C94F70900
S11311C00C94B2090E94D40968F39923B1F355230E
S11311D091F3951B550BBB27AA2762177307840746
S11311E038F09F5F5F4F220F331F441FAA1FA9F3DC
S11311F035D00E2E3AF0E0E832D091505040E695CA
S1131200001CCAF72BD0FE2F29D0660F771F881F2A
S1131210BB1F261737074807AB07B0E809F0BB0B1D
S1131220802DBF01FF2793585F4F3AF09E3F510531
S113123078F00C94AC090C94F7095F3FE4F3983E02
S1131240D4F3869577956795B795F7959F5FC9F71A
S1131250880F911D9695879597F90895E1E0660F9B
S1131260771F881FBB1F621773078407BA0720F014
S1131270621B730B840BBA0BEE1F88F7E09508957D
S11312800E94DC0988F09F5798F0B92F9927B7512D
S1131290B0F0E1F0660F771F881F991F1AF0BA9516
S11312A0C9F714C0B13091F00E94F609B1E0089575
S11312B00C94F609672F782F8827B85F39F0B93F67
S11312C0CCF3869577956795B395D9F73EF49095C9
S11312D08095709561957F4F8F4F9F4F0895E89447
S11312E009C097FB3EF490958095709561957F4F6A
S11312F08F4F9F4F9923A9F0F92F96E9BB27939518
S1131300F695879577956795B795F111F8CFFAF427
S1131310BB0F11F460FF1BC06F5F7F4F8F4F9F4F58
S113132016C0882311F096E911C0772321F09EE8B6
S1131330872F762F05C0662371F096E8862F70E01C
S113134060E02AF09A95660F771F881FDAF7880FF6
S11313509695879597F9089597F99F6780E870E0C7
S113136060E008959FEF80EC089500240A94161617
S1131370170618060906089500240A94121613067F
S1131380140605060895092E0394000C11F488230D
S113139052F0BB0F40F4BF2B11F460FF04C06F5F29
S11313A07F4F8F4F9F4F089557FD9058440F551FFF
S11313B059F05F3F71F04795880F97FB991F61F0D3
S11313C09F3F79F087950895121613061406551F4A
S11313D0F2CF4695F1DF08C0161617061806991FB6
S11313E0F1CF86957105610508940895E894BB27AB
S11313F066277727CB0197F908950E94100A0C9469
S1131400C3090E94B50938F00E94BC0920F0952355
S113141011F00C94AC090C94B20911240C94F70942
S11314200E94D40970F3959FC1F3950F50E0551FA6
S1131430629FF001729FBB27F00DB11D639FAA2725
S1131440F00DB11DAA1F649F6627B00DA11D661F74
S1131450829F2227B00DA11D621F739FB00DA11D95
S1131460621F839FA00D611D221F749F3327A00D4F
S1131470611D231F849F600D211D822F762F6A2FEB
S113148011249F5750409AF0F1F088234AF0EE0F50
S1131490FF1FBB1F661F771F881F91505040A9F77D
S11314A09E3F510580F00C94AC090C94F7095F3F02
S11314B0E4F3983ED4F3869577956795B795F795B9
S11314C0E7959F5FC1F7FE2B880F911D9695879531
S11314D097F908950E94DC09E8F09E37E8F0963900
S11314E0B8F49E3848F4672F782F8827985FF9CF8F
S11314F086957795679593959539D0F3B62FB17006
S11315006B0F711D811D20F48795779567959395D1
S11315100C948E0A0C94A90A0C94F709882371F48C
S1131520772321F09850872B762F07C0662311F478
S113153099270DC09051862B70E060E02AF09A95AF
S1131540660F771F881FDAF7880F9695879597F9A6
S113155008959F3F31F0915020F4879577956795D2
S1131560B795880F911D9695879597F90895A29F31
S1131570B001B39FC001A39F700D811D1124911D63
S1131580B29F700D811D1124911D08950F931F9317
S1131590CF93DF938230910510F482E090E0E091E4
S11315A0A322F091A42220E030E0A0E0B0E0309744
S11315B019F1408151810281138148175907C8F0FC
S11315C08417950769F4109731F012960C931297CB
S11315D013961C9327C00093A3221093A42222C025
S11315E02115310519F04217530718F49A01BD016A
S11315F0EF01DF01F801DBCF21153105F9F0281BDC
S1131600390B2430310580F48A819B816115710581
S113161021F0FB018283938304C08093A3229093DF
S1131620A422FE01329644C0FE01E20FF31F81930F
S1131630919322503109288339833AC02091A12201
S11316403091A222232B41F42091022030910320D7
S11316502093A1223093A2222091002030910120D6
S11316602115310541F42DB73EB740910420509126
S11316700520241B350BE091A122F091A222E21750
S1131680F307A0F42E1B3F0B2817390778F0AC01A1
S11316904E5F5F4F2417350748F04E0F5F1F40938E
S11316A0A1225093A2228193919302C0E0E0F0E042
S11316B0CF01DF91CF911F910F910895CF93DF93C5
S11316C0009709F481C0FC01329712821382A09121
S11316D0A322B091A422109781F420813181820F3A
S11316E0931F2091A1223091A2222817390751F586
S11316F0E093A122F093A22267C0ED0120E030E044
S1131700CE17DF0740F44A815B819E0141155105E4
S1131710F1F0EA01F5CFC283D38340815181840F74
S1131720951FC817D90759F488819981840F951F8B
S11317300296808391838A819B818283938321157E
S1131740310529F4E093A322F093A4223DC0E901DA
S1131750EA83FB8349915991C40FD51FEC17FD0708
S113176061F480819181840F951F0296E901888339
S11317709983828193818A839B83E0E0F0E01296CF
S11317808D919C911397009719F0FD01DC01F7CF1F
S11317908D919C9111979D012E5F3F4F820F931F56
S11317A02091A1223091A2222817390769F4309799
S11317B029F41092A3221092A42202C0128213824E
S11317C0A093A122B093A222DF91CF910895FB01AF
S11317D0DC0102C001900D9241505040D8F70895A9
S11317E0FB01DC010D900020E9F7119701900D92A7
S11317F00020E1F70895FB01DC0101900D92002027
S1131800E1F70895CF93DF93CDB7DEB7AE014A5F1A
S11318105F4FFA0161917191AF018091A72290917C
S1131820A8220E94460CDF91CF9108950F931F9335
S1131830CF93DF93E091A722F091A822238121FF87
S11318401BC08C01D0E0C0E0F80181918F01609150
S1131850A7227091A822DB011896ED91FC911997AB
S1131860882331F01995892B79F3DFEFCFEFECCF93
S11318708AE01995892B19F08FEF9FEF02C08D2F05
S11318809C2FDF91CF911F910F9108952F923F923A
S11318904F925F926F927F928F929F92AF92BF927C
S11318A0CF92DF92EF92FF920F931F93CF93DF9328
S11318B0CDB7DEB72B97CDBFDEBF6C017B018A01AC
S11318C0FC0116821782838181FFCCC1CE0101966F
S11318D03C01F6019381F70193FD859193FF81917A
S11318E07F01882309F4BAC1853239F493FD8591C7
S11318F093FF81917F01853229F4B60190E00E9423
S1131900600EE7CF912C212C312CFFE1F315D8F098
S11319108B3279F038F4803279F08332A1F4232DBC
S113192020611DC08D3261F0803369F4232D216064
S113193016C0832D8260382EE32DE4603E2E2AC02B
S1131940F32DF8601DC037FC2DC020ED280F2A3080
S113195040F08E32B9F436FC81C1232D2064322E3E
S113196019C036FE06C08AE0989E200D1124922EDE
S113197011C0EAE02E9E200D1124222EF32DF062D8
S11319803F2E08C08C3621F4832D8068382E02C087
S1131990883641F4F70193FD859193FF81917F018E
S11319A08111B3CF982F9F7D9554933028F40C5F09
S11319B01F4F9FE399830DC0833631F0833771F055
S11319C0833509F059C021C0F801808189830E5FF5
S11319D01F4F88248394912C530113C02801F2E0F3
S11319E04F0E511CF801A080B18036FE03C0692D52
S11319F070E002C06FEF7FEFC5010E94550E4C01ED
S1131A008201F32DFF773F2E16C0280122E0420EFB
S1131A10511CF801A080B18036FE03C0692D70E02E
S1131A2002C06FEF7FEFC5010E944A0E4C01F32DF7
S1131A30F0683F2E820133FC1BC0822D90E0881693
S1131A409906B0F4B60180E290E00E94600E2A94F8
S1131A50F4CFF50137FC859137FE81915F01B60122
S1131A6090E00E94600E21102A9421E0821A9108CD
S1131A708114910471F7E8C0843611F0893641F578
S1131A80F80137FE07C060817181828193810C5F08
S1131A901F4F08C060817181072E000C880B990BC1
S1131AA00E5F1F4FF32DFF763F2E97FF09C09095D1
S1131AB08095709561957F4F8F4F9F4FF0683F2EB3
S1131AC02AE030E0A3010E949C0E882E861845C0AF
S1131AD0853731F4232D2F7EB22E2AE030E025C045
S1131AE0932D997FB92E8F36C1F018F4883579F08B
S1131AF0B5C0803719F0883721F0B0C0E92FE06114
S1131B00BE2EB4FE0DC0FB2DF460BF2E09C034FE02
S1131B100AC0292F2660B22E06C028E030E005C096
S1131B2020E130E002C020E132E0F801B7FE07C056
S1131B3060817181828193810C5F1F4F06C0608137
S1131B40718180E090E00E5F1F4FA3010E949C0E04
S1131B50882E8618FB2DFF773F2E36FE0DC0232DD1
S1131B602E7FA22E891458F434FE0BC032FC09C017
S1131B70832D8E7EA82E05C0B82CA32C03C0B82CB0
S1131B8001C0B92CA4FE0FC0FE01E80DF11D808137
S1131B90803321F49A2D997EA92E09C0A2FE06C095
S1131BA0B394B39404C08A2D867809F0B394A3FC4B
S1131BB011C0A0FE06C0B21488F4280C922C9B1805
S1131BC00EC0B21460F4B60180E290E00E94600E90
S1131BD0B394F7CFB21418F42B1802C0982C212C0C
S1131BE0A4FE10C0B60180E390E00E94600EA2FE45
S1131BF017C0A1FC03C088E790E002C088E590E02C
S1131C00B6010CC08A2D867859F0A1FE02C08BE281
S1131C1001C080E2A7FC8DE2B60190E00E94600E54
S1131C20891438F4B60180E390E00E94600E9A941F
S1131C30F7CF8A94F301E80DF11D8081B60190E09D
S1131C400E94600E8110F5CF222009F442CEB60125
S1131C5080E290E00E94600E2A94F6CFF60186811D
S1131C60978102C08FEF9FEF2B96CDBFDEBFDF9130
S1131C70CF911F910F91FF90EF90DF90CF90BF9085
S1131C80AF909F908F907F906F905F904F903F9018
S1131C902F900895FC010590615070400110D8F711
S1131CA0809590958E0F9F1F0895FC0161507040A0
S1131CB001900110D8F7809590958E0F9F1F08957D
S1131CC00F931F93CF93DF93FB01238121FD03C067
S1131CD08FEF9FEF2CC022FF16C0468157812481CD
S1131CE035814217530744F4A081B1819D012F5FD0
S1131CF03F4F208331838C93268137812F5F3F4F61
S1131D002683378314C08B01EC01FB010084F18529
S1131D10E02D1995892BE1F6D80116968D919C91A9
S1131D201797019616968D939C931797CE01DF9182
S1131D30CF911F910F910895FA01AA27283051F1EC
S1131D40203181F1E8946F936E7F6E5F7F4F8F4FE8
S1131D509F4FAF4FB1E03ED0B4E03CD0670F781F47
S1131D60891F9A1FA11D680F791F8A1F911DA11D2C
S1131D706A0F711D811D911DA11D20D009F4689465
S1131D803F912AE0269F11243019305D3193DEF60D
S1131D90CF010895462F4770405D4193B3E00FD0C3
S1131DA0C9F7F6CF462F4F70405D4A3318F0495DAE
S1131DB031FD4052419302D0A9F7EACFB4E0A69591
S1131DC09795879577956795BA95C9F700976105B3
S1131DD0710508959B01AC010A2E06945795479509
S1131DE037952795BA95C9F7620F731F841F951FFE
S10B1DF0A01D0895F894FFCF33
S1131DF80000AB22200005200100000003000000C1
S1131E08002C04440400004156483031004156482F
S1131E183032000001020304051112131415160AC6
S1131E280B0C0D0E0F696E74657272757074203A1E
S1131E3820747828256429206661696C282564291A
S1131E48207278282564290A005331001B5B481B3B
S1131E585B324A1B5B334A0053656E736F722025ED
S1131E68732028536C617665290A00427574746F6F
S1131E786E20707265737365642100486F6F692101
S1071E88005066009C
S9030000FC
