:100000000C9402010C9423010C9423010C94230101
:100010000C9423010C9423010C9423010C942301D0
:100020000C9423010C9423010C9423010C942301C0
:100030000C9423010C9423010C9423010C942301B0
:100040000C9423010C9423010C9423010C942301A0
:100050000C9423010C9423010C9423010C94230190
:100060000C9423010C9423010C9423010C94230180
:100070000C9423010C9423010C9423010C94230170
:100080000C9423010C9423010C9423010C94230160
:100090000C9423010C9423010C9423010C94230150
:1000A0000C9423010C9423010C9423010C94230140
:1000B0000C9423010C9423010C9423010C94230130
:1000C0000C9423010C9423010C9423010C94230120
:1000D0000C9423010C9423010C9423010C94230110
:1000E0000C9423010C9423010C9423010C94230100
:1000F0000C9423010C9423010C9423010C942301F0
:100100000C9423010C9423010C9423010C942301DF
:100110000C9423010C9423010C9423010C942301CF
:100120000C9423010C9423010C9423010C942301BF
:100130000C9423010C9423010C9423010C942301AF
:100140000C9423010C9423010C9423010C9423019F
:100150000C9423010C9423010C9423010C9423018F
:100160000C9423010C9423010C9423010C9423017F
:100170000C9423010C9423010C9423010C9423016F
:100180000C9423010C9423010C9423010C9423015F
:100190000C9423010C9423010C9423010C9423014F
:1001A0000C9474010C9423010C9423010C942301EE
:1001B0000C9423010C9423010C9423010C9423012F
:1001C0000C9423010C9423010C9423010C9423011F
:1001D0000C9423010C9423010C9423010C943907F3
:1001E0000C9463070C9423010C9423010C942301B9
:1001F0000C9423010C9423010C9423010C943007DC
:100200000C94180711241FBECFEFCDBFDFE5DEBF72
:1002100000E00CBF10E2A0E0B0E2EAE2F1E200E0B0
:100220000BBF02C007900D92A438B107D9F722E2A4
:10023000A4E8B0E201C01D92AB3BB207E1F70E9417
:1002400026030C9493100C940000A0ECB1E092E013
:100250001A969C931A97E82FF0E084911A961C92B4
:100260000895CF93DF9380E20E942501C0E0D2E0A1
:100270008C8781E20E9425018D8797E0909302068A
:1002800087E189AB82E088AB2FE029A788A799A3F3
:1002900088A390E19A8399838C8381E08883DF919E
:1002A000CF910895E0E5F0E08BEC82838081886057
:1002B0008083818183FFFDCFE0E5F0E082EC8583E0
:1002C000808180618083818184FFFDCF88ED84BF40
:1002D00084E080934000E0E5F0E080818E7F8083C1
:1002E00080818D7F808308951F920F920FB60F92A9
:1002F00011240BB60F92AF92BF92CF92DF92EF9282
:10030000FF920F931F932F933F934F935F936F939E
:100310007F938F939F93AF93BF93EF93FF93CF936D
:10032000DF9300D0CDB7DEB7AE014D5F5F4FBE01AA
:100330006E5F7F4FCE0101960E9458058B81882306
:1003400009F4ABC00E940F06082F682F8AE890E2DC
:100350000E94BF0410E0F801E657FF4D10821F9283
:100360001F921F921F921F921F9285E290E29F930D
:100370008F930E94CB0D83E090E00E94600C7C0183
:1003800080918A2090918B20F70180839183128243
:1003900083E090E00E94600C6C0180918C20909131
:1003A0008D20F601808391831282C80101960E94FC
:1003B000600C5C01A8016EE870E20E949F0DF501DF
:1003C000E00FF11F10826EE370E2C7010E94B30DCF
:1003D000CDBFDEBF892B09F060C0BF92AF92DF9224
:1003E000CF92FF92EF9285E290E29F938F930E94CB
:1003F000CB0D61E470E2C6010E94B30DCDBFDEBF3C
:10040000892B09F044C0C5010E94810D2091122062
:1004100030911320A901495E53404F335F4168F486
:1004200064E6689FA001699F500D1124240F351FB9
:10043000209312203093132014C0293E63E0360726
:100440003CF48DEE93E0809312209093132009C02A
:100450002832334234F083E293E280931220909367
:1004600013202091122030911320822F932F8093FC
:100470002809909329093F932F9384E490E29F9356
:100480008F930E94CB0D0F900F900F900F90EFE382
:10049000FCE93197F1F700C000002396CDBFDEBF25
:1004A000DF91CF91FF91EF91BF91AF919F918F918C
:1004B0007F916F915F914F913F912F911F910F917C
:1004C000FF90EF90DF90CF90BF90AF900F900BBE5A
:1004D0000F900FBE0F901F901895E0E6F6E088E0B1
:1004E000828388E1838B90E19283848B84E0818393
:1004F00082E0818381E08183A0E0B9E083E111960D
:100500008C93119783E08C938FE097E296968D936E
:100510009C939797809112209091132098968D9399
:100520009C93999780E2828308950E94F0060E942E
:10053000C70668E080E30E946B0684E00E943906EB
:1005400080E20E9447068CE00E945D0680E30E94E4
:10055000210681E00E942D060E94EC050E94C20641
:100560000E94C6040E94D504E0EAF6E08285806419
:10057000828782E0868B8185816081878CE090E232
:100580000E94760566E070E281E00E9494050E9478
:10059000E4040895EF92FF920F931F93CF93DF939C
:1005A0008C01EB01FC0101900020E9F73197CF01AC
:1005B000801B910BFB0101900020E9F73197E61BAE
:1005C000F70B8E0F9F1F01960E94600C7C01B801F3
:1005D0000E94BC0DBE01C7010E94A80DC701DF919A
:1005E000CF911F910F91FF90EF9008950F931F935C
:1005F000CF93DF938C01EB010E941905B8018EE3C4
:1006000090E20E94CA02BE010E94CA02FC0101904F
:100610000020E9F73197BF01681B790B0E94BC06E7
:100620002FEF89EF90E0215080409040E1F700C02B
:1006300000000E94E4048FE39CE90197F1F700C0F9
:100640000000DF91CF911F910F9108950E945201F8
:100650000E9431010E946D020E94950260E078E4E0
:1006600088EE91E00E948D07E0EAF0E082818160EF
:100670008283789488E490E29F938F930E94CB0DBD
:100680008EE390E29F938F9384E590E29F938F9304
:100690000E94CB0D0F900F900F900F900F900F9026
:1006A000C12CD12CE12CF12CA12CB12C812C912C22
:1006B00008E616E0C0E6D6E06894662462F868941E
:1006C000772471F8F801808183FF03C0888585FD58
:1006D00012C06D8281149104F9F40E94190567E635
:1006E00070E289E690E20E94F602A12CB12C8824E7
:1006F0008394912C11C06E82A114B10469F40E94FC
:1007000019056CE670E289E690E20E94F602AA24DE
:10071000A394B12C812C912CF801808184FD12C00E
:100720007D82E114F104F9F40E94190567E670E294
:100730008EE690E20E94F602C12CD12CEE24E394C6
:10074000F12C11C07E82C114D10469F40E941905F4
:100750006CE670E28EE690E20E94F602CC24C3942E
:10076000D12CE12CF12CFFEF27E883E1F150204060
:100770008040E1F700C00000A5CF1F93CF93DF9327
:10078000C0EAD6E010E21E838F710E940A078FEF45
:100790000E940A071D83DF91CF911F910895DF9278
:1007A000EF92FF920F931F93CF93DF937B01C42FA0
:1007B00090E29093A6068F7180620E940A07D82E5D
:1007C0008FEF8C0FCC2369F0E701082F10E00F5F4B
:1007D0001F4F0E0D1F1D89910E940A07C017D107D8
:1007E000D1F780E28093A5068D2DDF91CF911F91E7
:1007F0000F91FF90EF90DF900895FF920F931F935A
:10080000CF93DF93F62EC0EAD6E010E21E838F71FD
:1008100080620E940A07082F8F2D0E940A071D83FD
:10082000802FDF91CF911F910F91FF900895BF927C
:10083000CF92DF92EF92FF920F931F93CF93DF93AC
:100840006C01842FC09115201C2F6C1708F4162FF3
:1008500090918920911125C00C2F011B90E290935B
:10086000A6060E940A07B82EEE24EA94E10E1111A2
:1008700002C00EC000E0E601F12C8FEFE81AF80A82
:10088000EC0CFD1C89910E940A07EC16FD06D1F7BD
:10089000002391F0C02F80E00E940A07C150D9F7D1
:1008A0000BC090E29093A6060E940A07B82EEE2491
:1008B000EA94E10E1111DECF80E28093A5068B2D24
:1008C000DF91CF911F910F91FF90EF90DF90CF902C
:1008D000BF900895BF92CF92DF92EF92FF920F9355
:1008E0001F93CF93DF936C01C09115201C2F6C17C1
:1008F00008F4162F80918920811127C00C2F011B2D
:1009000080E28093A60681E60E940A07B82EEE24B4
:10091000EA94E10E111102C00FC000E0E601F12CD3
:100920008FEFE81AF80AEC0CFD1C8FEF0E940A0703
:100930008993EC16FD06C9F7002399F0C02F8FEFBD
:100940000E940A07C150D9F70CC080E28093A60626
:1009500081E60E940A07B82EEE24EA94E10E1111F6
:10096000DCCF80E28093A5068B2DDF91CF911F9184
:100970000F91FF90EF90DF90CF90BF9008950E946D
:100980006A0487E10E94BD03817008951F93CF938D
:10099000DF93C0EAD6E010E21E8382EE0E940A07CF
:1009A0001D83DF91CF911F9108951F93CF93DF9304
:1009B000C0EAD6E010E21E8381EE0E940A071D8382
:1009C000DF91CF911F91089580E00E94BD0381FDCA
:1009D0000CC0682F636080E00E94FD038FE79EE3F8
:1009E0000197F1F700C0000005C0682F616080E04A
:1009F0000E94FD038FE094E00197F1F700C0000032
:100A000060E787E00E94FD034091142064E870E2F3
:100A10008AE00E94CF030E94C6040E94D50480E8A9
:100A20008093A5068FE094E00197F1F700C00000E5
:100A3000089580E88093A6060E94C6040E94D5040B
:100A400008950F931F93CF93DF93EC01162F042F7C
:100A500080E00E94BD0381FD0DC0682F6E7F626043
:100A600080E00E94FD038FE79EE30197F1F700C04D
:100A7000000005C0682F6E7F80E00E94FD038FE0BC
:100A800094E00197F1F700C00000402F612FCE01E4
:100A90000E941704E0EAF6E080E885839AE69A95DA
:100AA000F1F700C08683DF91CF911F910F910895D8
:100AB000EF92FF920F931F93CF93DF937C018B01F3
:100AC000EA0160E787E00E94FD03982F9072F7012A
:100AD0009083982F9071F801908380748883DF91C0
:100AE000CF911F910F91FF90EF900895CF93DF93D7
:100AF000EC0140911420BC018AE00E94CF03409198
:100B00001420BE0180E10E94CF0360911520603265
:100B100020F481E10E94FD0304C060E281E10E94B3
:100B2000FD03DF91CF9108950F931F93CF93DF9330
:100B3000C82F8B01811108C04091142050E084E837
:100B400090E20E949F0D04C0873078F5823058F4FF
:100B5000EC2FF0E0E358FF4D40911420B801808164
:100B60000E94CF0308C0E82FF0E0E358FF4D41E0BA
:100B700080810E94CF03D0E0FE01E958FF4D6091D3
:100B8000152080810E94FD0382E00E94BD03CF58A2
:100B9000DF4D61E070E0088002C0660F771F0A94A5
:100BA000E2F7682B82E00E94FD03DF91CF911F9155
:100BB0000F9108951F93CF93DF93C0EAD6E010E220
:100BC0001E8380E50E940A0783E70E940A071D83AF
:100BD000DF91CF911F9108958DE10E94BD03682F91
:100BE00064608DE10E94FD038DE10E94BD038111CF
:100BF0000AC00E94DA058DE10E94BD03682F64607F
:100C00008DE10E94FD038CE10E94BD03682F6F639C
:100C10008CE10E94FD0381E08093892008951F9359
:100C2000CF93DF93C0EAD6E010E21E8380E60E94F5
:100C30000A078FEF0E940A071D83DF91CF911F9152
:100C4000089588232CF0682F85E00E94FD03089505
:100C50006FE785E00E94FD030895882329F06FE384
:100C600081E00E94FD03089560E081E00E94FD03A1
:100C70000895CF93C82F86E00E94BD03897FC67078
:100C8000682F6C2B86E00E94FD03CF910895CF93CF
:100C9000C82F86E00E94BD03877D9C2F9872682F25
:100CA000692B86E00E94FD0386E00E94BD0391E06F
:100CB000C81390E0892FCF910895CF93C82F80E07B
:100CC0000E94BD03837FCC70682F6C2B80E00E9454
:100CD000FD03CF910895682B84E00E94FD030895E1
:100CE00084E00E94BD03282F22952F7030E02F5FF3
:100CF0003F4F9AEF929FA001939F500D11248F7048
:100D000090E001969C01429FC001439F900D529F2D
:100D1000900D11240895CF93DF930E9470069C01DB
:100D20003695279536952795ABE7B4E10E94510C8F
:100D3000EC01D695C795209771F087E00E94BD031E
:100D40002197EFE1F3E03197F1F700C000008073E5
:100D500011F4209791F787E00E94BD03C82F0E94ED
:100D6000C6040E94D50460E787E00E94FD038C2F33
:100D70008072DF91CF91089540EA0E9421050E9480
:100D80008B06089560E787E00E94FD0308958FE3D6
:100D90009CE90197F1F700C000006FE584E00E9434
:100DA000FD0386E00E94390680E20E944706882300
:100DB00019F081E08093162080E00E9447068CE0C5
:100DC0000E945D0660E08CE10E94FD038CE40E94BD
:100DD00021060E94C2060E94C6040E94D5040895FE
:100DE000E0E4F6E088E0818384E0828382E081832E
:100DF000E0EAF6E080E2818380E4828380E8818318
:100E0000E0EAF8E088E1848380EC8583178281E062
:100E1000868308958093A008E0EAF8E0818186FF48
:100E2000FDCFE0EAF8E081818064818380810895CC
:100E3000CF93C82F8AEA90E20E946D098823D1F3EC
:100E4000CA3029F46DE08AEA90E20E94C4076C2F50
:100E50008AEA90E20E94C40780E090E0CF91089572
:100E60008AEA90E20E94B307811521E09207C1F35C
:100E700008951F920F920FB60F9211240BB60F9286
:100E80002F933F934F935F936F937F938F939F9392
:100E9000AF93BF93EF93FF938AEA90E20E94BB095E
:100EA000FF91EF91BF91AF919F918F917F916F9142
:100EB0005F914F913F912F910F900BBE0F900FBEFE
:100EC0000F901F9018951F920F920FB60F9211243A
:100ED0000BB60F922F933F934F935F936F937F9334
:100EE0008F939F93AF93BF93EF93FF938AEA90E220
:100EF0000E94D609FF91EF91BF91AF919F918F9181
:100F00007F916F915F914F913F912F910F900BBE09
:100F10000F900FBE0F901F901895CF92EF92FF92F7
:100F20000F931F939B01AC01C12CE12C12ECF12E0D
:100F300001E010E060EA7BE08AEA90E20E94FE08AD
:100F4000E5EBF2E287E190E28083918382839383F1
:100F5000E0EAF0E08281816082831F910F91FF902F
:100F6000EF90CF900895CF93DF93EC010E94A309F7
:100F7000882329F0CE010E94AE0990E002C080E0F3
:100F800091E0DF91CF9108951F93CF93DF93EC0110
:100F9000162F0E946D09882321F0612FCE010E9437
:100FA0007A09DF91CF911F910895803A28E0920746
:100FB00039F4E0E4F6E088E0818384E082830895F8
:100FC000803B28E0920739F4E0E4F6E080E8818392
:100FD00080E482830895803A29E0920739F4E0E6BC
:100FE000F6E088E0818384E082830895803B29E0F5
:100FF000920739F4E0E6F6E080E8818380E48283BA
:101000000895803A2AE0920739F4E0E8F6E088E0B3
:10101000818384E082830895803B2AE0920739F43B
:10102000E0E8F6E080E8818380E482830895803AF6
:101030009B4031F4E0EAF6E088E0818384E082833B
:1010400008954F925F926F927F928F929F92AF928C
:10105000BF92CF92DF92EF92FF920F931F93CF93A5
:10106000DF9349015A012E2D2170C0E1D0E002C06A
:10107000D595C7952A95E2F700230CF042C00E944F
:10108000090B6B017C01DD27BE01DD0F880B990B7D
:101090000E940B0B2B013C01C501B4010E94090BFE
:1010A0009B01AC01C301B2010E94970B9B01AC01F3
:1010B000C701B6010E94680A20E030E040E85FE323
:1010C0000E94FB096B017C01112701950CF410951E
:1010D00061E070E002C0660F771F0A95E2F7072E05
:1010E000000C880B990B0E940B0B9B01AC01C701F4
:1010F000B6010E94970B0E94040C0E94DA0ACB01F1
:101100003EC00E94090B6B017C01BE017727072EB0
:10111000000C880B990B0E940B0B2B013C01C501A5
:10112000B4010E94090B9B01AC01C301B2010E94F2
:10113000970B9B01AC01C701B6010E94680A6B01C5
:101140007C0161E070E002C0660F771F0A95E2F74C
:10115000072E000C880B990B0E940B0B9B01AC0116
:10116000C701B6010E94680A20E030E040E85FE372
:101170000E94FB090E94040C0E94DA0ACB01DF9155
:10118000CF911F910F91FF90EF90DF90CF90BF9084
:10119000AF909F908F907F906F905F904F90089549
:1011A0004F925F926F927F928F929F92AF92BF9277
:1011B000EF920F93CF93DF932B013C0149015A012A
:1011C000D02FC9EFED2E0C2FA5019401C301B20160
:1011D0000E9421088115904118F0CF5FC83091F727
:1011E0008C2FDF91CF910F91EF90BF90AF909F9098
:1011F0008F907F906F905F904F9008952F923F92C5
:101200004F925F926F927F928F929F92AF92BF9216
:10121000CF92EF92FF920F931F93CF93DF93EC0146
:101220001B0129013A0147015801EC2C0C2DA501A5
:101230009401C301B2010E94D008182F082FA50104
:101240009401C301B2010E942108F82E092F41E048
:10125000B101CE010E945F09E881F98183E08583B5
:10126000E881F981848180618483E881F9818481C6
:1012700088608483E881F98183818F7C80618383A6
:10128000E881F981F682E881F9811295107F102BAF
:101290001783888199810E94D507DF91CF911F9193
:1012A0000F91FF90EF90CF90BF90AF909F908F9055
:1012B0007F906F905F904F903F902F900895FC012A
:1012C000608371834283EC5FFD4F108231971082FF
:1012D00033961082319710820895FC01EB5FFD4F29
:1012E00020813196308191E0920F81E0931301C00B
:1012F00080E00895CF93DF93FC01DC01AB5FBD4F2D
:101300009C919F5F11962C9181E0921301C080E027
:101310009217B1F0EF01CB5FDD4F9881DF01A90F8C
:10132000B11DAD5FBE4F6C939F5F9883A081B1816B
:1013300013969C9113979C7F2281922B13969C93DA
:10134000DF91CF910895FC01ED5FFD4F2081319633
:10135000908181E0291301C080E00895FC01EC5FD9
:10136000FD4F2081DC01A20FB11D13968C9190815D
:101370009F5F90830895FC01ED5FFD4F20812F5FFB
:1013800031963081DC01ED91FC911197408123175A
:1013900059F0FC01ED5FFD4F3081A30FB11D139695
:1013A0004C93208381E0089580E00895CF93DF93EC
:1013B000FC01EA5FFD4F308131972081321307C075
:1013C000DC01ED91FC9183818C7F838311C0FC0152
:1013D000EA5FFD4F2081DC01A20FB11DAD5FBE4F62
:1013E0002C91EC01A881B9812C9380818F5F80833F
:1013F000DF91CF9108955058BB27AA270E94130A66
:101400000C945D0B0E944F0B38F00E94560B20F09D
:1014100039F49F3F19F426F40C944C0B0EF4E0952C
:10142000E7FB0C94460BE92F0E946E0B58F3BA179A
:10143000620773078407950720F079F4A6F50C94EA
:10144000900B0EF4E0950B2EBA2FA02D0B01B901D5
:1014500090010C01CA01A0011124FF27591B99F02A
:10146000593F50F4503E68F11A16F040A22F232F36
:10147000342F4427585FF3CF469537952795A79586
:10148000F0405395C9F77EF41F16BA0B620B730B2D
:10149000840BBAF09150A1F0FF0FBB1F661F771F9E
:1014A000881FC2F70EC0BA0F621F731F841F48F453
:1014B000879577956795B795F7959E3F08F0B0CFDC
:1014C0009395880F08F09927EE0F979587950895C3
:1014D0000E947C0A0C945D0B0E94560B58F00E94EF
:1014E0004F0B40F029F45F3F29F00C94460B51114B
:1014F0000C94910B0C944C0B0E946E0B68F3992387
:10150000B1F3552391F3951B550BBB27AA276217FF
:101510007307840738F09F5F5F4F220F331F441F0C
:10152000AA1FA9F335D00E2E3AF0E0E832D0915040
:101530005040E695001CCAF72BD0FE2F29D0660F2D
:10154000771F881FBB1F261737074807AB07B0E870
:1015500009F0BB0B802DBF01FF2793585F4F3AF076
:101560009E3F510578F00C94460B0C94910B5F3F15
:10157000E4F3983ED4F3869577956795B795F795FC
:101580009F5FC9F7880F911D9695879597F90895E4
:10159000E1E0660F771F881FBB1F62177307840780
:1015A000BA0720F0621B730B840BBA0BEE1F88F78F
:1015B000E09508950E94760B88F09F5798F0B92F18
:1015C0009927B751B0F0E1F0660F771F881F991F78
:1015D0001AF0BA95C9F714C0B13091F00E94900B7F
:1015E000B1E008950C94900B672F782F8827B85F8F
:1015F00039F0B93FCCF3869577956795B395D9F7D0
:101600003EF490958095709561957F4F8F4F9F4FD9
:101610000895E89409C097FB3EF4909580957095E5
:1016200061957F4F8F4F9F4F9923A9F0F92F96E92E
:10163000BB279395F695879577956795B795F111A3
:10164000F8CFFAF4BB0F11F460FF1BC06F5F7F4F40
:101650008F4F9F4F16C0882311F096E911C0772352
:1016600021F09EE8872F762F05C0662371F096E85B
:10167000862F70E060E02AF09A95660F771F881F2A
:10168000DAF7880F9695879597F9089597F99F67E8
:1016900080E870E060E008959FEF80EC08950024FA
:1016A0000A941616170618060906089500240A94C7
:1016B00012161306140605060895092E0394000C4D
:1016C00011F4882352F0BB0F40F4BF2B11F460FFDC
:1016D00004C06F5F7F4F8F4F9F4F089557FD905805
:1016E000440F551F59F05F3F71F04795880F97FBE6
:1016F000991F61F09F3F79F08795089512161306A0
:101700001406551FF2CF4695F1DF08C016161706CE
:101710001806991FF1CF8695710561050894089503
:10172000E894BB2766277727CB0197F908950E9495
:10173000AA0B0C945D0B0E944F0B38F00E94560BC5
:1017400020F0952311F00C94460B0C944C0B1124B3
:101750000C94910B0E946E0B70F3959FC1F3950F43
:1017600050E0551F629FF001729FBB27F00DB11D25
:10177000639FAA27F00DB11DAA1F649F6627B00DB5
:10178000A11D661F829F2227B00DA11D621F739F9E
:10179000B00DA11D621F839FA00D611D221F749FAC
:1017A0003327A00D611D231F849F600D211D822FF3
:1017B000762F6A2F11249F5750409AF0F1F088231A
:1017C0004AF0EE0FFF1FBB1F661F771F881F915047
:1017D0005040A9F79E3F510580F00C94460B0C94A5
:1017E000910B5F3FE4F3983ED4F386957795679528
:1017F000B795F795E7959F5FC1F7FE2B880F911D71
:101800009695879597F908950E94760BE8F09E3794
:10181000E8F09639B8F49E3848F4672F782F882777
:10182000985FF9CF86957795679593959539D0F31D
:10183000B62FB1706B0F711D811D20F487957795C0
:10184000679593950C94280C0C94430C0C94910B75
:10185000882371F4772321F09850872B762F07C0C7
:10186000662311F499270DC09051862B70E060E03B
:101870002AF09A95660F771F881FDAF7880F9695DA
:10188000879597F908959F3F31F0915020F48795FF
:1018900077956795B795880F911D9695879597F9D8
:1018A0000895A29FB001B39FC001A39F700D811D39
:1018B0001124911DB29F700D811D1124911D089559
:1018C0000F931F93CF93DF938230910510F482E042
:1018D00090E0E091B322F091B42220E030E0A0E06B
:1018E000B0E0309719F1408151810281138148178E
:1018F0005907C8F08417950769F4109731F01296CC
:101900000C93129713961C9327C00093B322109345
:10191000B42222C02115310519F04217530718F4DB
:101920009A01BD01EF01DF01F801DBCF211531057F
:10193000F9F0281B390B2430310580F48A819B8112
:101940006115710521F0FB018283938304C08093AC
:10195000B3229093B422FE01329644C0FE01E20FFE
:10196000F31F8193919322503109288339833AC020
:101970002091B1223091B222232B41F420910220F8
:10198000309103202093B1223093B2222091002085
:10199000309101202115310541F42DB73EB740911A
:1019A000042050910520241B350BE091B122F091C9
:1019B000B222E217F307A0F42E1B3F0B28173907BA
:1019C00078F0AC014E5F5F4F2417350748F04E0F9B
:1019D0005F1F4093B1225093B2228193919302C032
:1019E000E0E0F0E0CF01DF91CF911F910F910895DA
:1019F000CF93DF93009709F481C0FC0132971282E4
:101A00001382A091B322B091B422109781F4208167
:101A10003181820F931F2091B1223091B222281779
:101A2000390751F5E093B122F093B22267C0ED017E
:101A300020E030E0CE17DF0740F44A815B819E0151
:101A400041155105F1F0EA01F5CFC283D3834081FE
:101A50005181840F951FC817D90759F4888199813E
:101A6000840F951F0296808391838A819B81828354
:101A700093832115310529F4E093B322F093B42226
:101A80003DC0E901EA83FB8349915991C40FD51FF9
:101A9000EC17FD0761F480819181840F951F0296F8
:101AA000E90188839983828193818A839B83E0E023
:101AB000F0E012968D919C911397009719F0FD011B
:101AC000DC01F7CF8D919C9111979D012E5F3F4FC7
:101AD000820F931F2091B1223091B222281739072B
:101AE00069F4309729F41092B3221092B42202C004
:101AF00012821382A093B122B093B222DF91CF91D0
:101B00000895FC0188279927E89421912032E9F370
:101B1000293010F02E30C8F32B3241F02D3239F439
:101B2000689404C00E94C30D820F911D219120531F
:101B30002A30C0F31EF4909581959F4F0895FB01C4
:101B4000DC0102C001900D9241505040D8F7089539
:101B5000FB01DC010D900020E9F7119701900D9237
:101B60000020E1F70895FB01DC018D9101908019BF
:101B70000110D9F3990B0895FB01DC0101900D923E
:101B80000020E1F708957AE0979F902D879F802DA0
:101B9000910D11240895CF93DF93CDB7DEB7AE0139
:101BA0004A5F5F4FFA0161917191AF018091B72255
:101BB0009091B8220E94DF0DDF91CF9108952F926E
:101BC0003F924F925F926F927F928F929F92AF92CD
:101BD000BF92CF92DF92EF92FF920F931F93CF931A
:101BE000DF93CDB7DEB72B97CDBFDEBF6C017B0196
:101BF0008A01FC0116821782838181FFCCC1CE014C
:101C000001963C01F6019381F70193FD859193FFC5
:101C100081917F01882309F4BAC1853239F493FD9B
:101C2000859193FF81917F01853229F4B60190E07F
:101C30000E94F90FE7CF912C212C312CFFE1F315F5
:101C4000D8F08B3279F038F4803279F08332A1F415
:101C5000232D20611DC08D3261F0803369F4232D66
:101C6000216016C0832D8260382EE32DE4603E2E65
:101C70002AC0F32DF8601DC037FC2DC020ED280FC1
:101C80002A3040F08E32B9F436FC81C1232D206415
:101C9000322E19C036FE06C08AE0989E200D11240F
:101CA000922E11C0EAE02E9E200D1124222EF32D3B
:101CB000F0623F2E08C08C3621F4832D8068382EC8
:101CC00002C0883641F4F70193FD859193FF81911D
:101CD0007F018111B3CF982F9F7D9554933028F4C5
:101CE0000C5F1F4F9FE399830DC0833631F083371C
:101CF00071F0833509F059C021C0F80180818983D2
:101D00000E5F1F4F88248394912C530113C0280128
:101D1000F2E04F0E511CF801A080B18036FE03C0E6
:101D2000692D70E002C06FEF7FEFC5010E94EE0FDA
:101D30004C018201F32DFF773F2E16C0280122E0CF
:101D4000420E511CF801A080B18036FE03C0692DFF
:101D500070E002C06FEF7FEFC5010E94E30F4C01FE
:101D6000F32DF0683F2E820133FC1BC0822D90E0E2
:101D700088169906B0F4B60180E290E00E94F90F4F
:101D80002A94F4CFF50137FC859137FE81915F01EC
:101D9000B60190E00E94F90F21102A9421E0821AE6
:101DA00091088114910471F7E8C0843611F08936E6
:101DB00041F5F80137FE07C060817181828193810E
:101DC0000C5F1F4F08C060817181072E000C880BCB
:101DD000990B0E5F1F4FF32DFF763F2E97FF09C023
:101DE00090958095709561957F4F8F4F9F4FF068CC
:101DF0003F2E2AE030E0A3010E943510882E86187D
:101E000045C0853731F4232D2F7EB22E2AE030E0F5
:101E100025C0932D997FB92E8F36C1F018F48835DF
:101E200079F0B5C0803719F0883721F0B0C0E92FBC
:101E3000E061BE2EB4FE0DC0FB2DF460BF2E09C0C4
:101E400034FE0AC0292F2660B22E06C028E030E0FA
:101E500005C020E130E002C020E132E0F801B7FE29
:101E600007C060817181828193810C5F1F4F06C022
:101E70006081718180E090E00E5F1F4FA3010E949E
:101E80003510882E8618FB2DFF773F2E36FE0DC0AD
:101E9000232D2E7FA22E891458F434FE0BC032FC61
:101EA00009C0832D8E7EA82E05C0B82CA32C03C09C
:101EB000B82C01C0B92CA4FE0FC0FE01E80DF11D25
:101EC0008081803321F49A2D997EA92E09C0A2FE2B
:101ED00006C0B394B39404C08A2D867809F0B394F5
:101EE000A3FC11C0A0FE06C0B21488F4280C922CEA
:101EF0009B180EC0B21460F4B60180E290E00E941C
:101F0000F90FB394F7CFB21418F42B1802C0982C21
:101F1000212CA4FE10C0B60180E390E00E94F90FCE
:101F2000A2FE17C0A1FC03C088E790E002C088E5CC
:101F300090E0B6010CC08A2D867859F0A1FE02C04F
:101F40008BE201C080E2A7FC8DE2B60190E00E9426
:101F5000F90F891438F4B60180E390E00E94F90F7C
:101F60009A94F7CF8A94F301E80DF11D8081B601B0
:101F700090E00E94F90F8110F5CF222009F442CEA3
:101F8000B60180E290E00E94F90F2A94F6CFF601A4
:101F90008681978102C08FEF9FEF2B96CDBFDEBF6A
:101FA000DF91CF911F910F91FF90EF90DF90CF9035
:101FB000BF90AF909F908F907F906F905F904F9069
:101FC0003F902F900895FC010590615070400110E2
:101FD000D8F7809590958E0F9F1F0895FC01615052
:101FE000704001900110D8F7809590958E0F9F1F3B
:101FF00008950F931F93CF93DF93FB01238121FD5E
:1020000003C08FEF9FEF2CC022FF16C0468157817F
:10201000248135814217530744F4A081B1819D0189
:102020002F5F3F4F208331838C93268137812F5F31
:102030003F4F2683378314C08B01EC01FB010084E2
:10204000F185E02D1995892BE1F6D80116968D9131
:102050009C911797019616968D939C931797CE0196
:10206000DF91CF911F910F910895FA01AA2728308F
:1020700051F1203181F1E8946F936E7F6E5F7F4F55
:102080008F4F9F4FAF4FB1E03ED0B4E03CD0670FD1
:10209000781F891F9A1FA11D680F791F8A1F911D24
:1020A000A11D6A0F711D811D911DA11D20D009F474
:1020B00068943F912AE0269F11243019305D3193B6
:1020C000DEF6CF010895462F4770405D4193B3E09F
:1020D0000FD0C9F7F6CF462F4F70405D4A3318F046
:1020E000495D31FD4052419302D0A9F7EACFB4E0F7
:1020F000A6959795879577956795BA95C9F70097AF
:102100006105710508959B01AC010A2E069457954F
:10211000479537952795BA95C9F7620F731F841FA6
:0A212000951FA01D0895F894FFCF4D
:10212A000000BB2220004156483031004156483059
:10213A003200DC0505200100000003000000001841
:10214A00073007000025733A20636F6D6D616E6476
:10215A002025732C20646174612025730A00535072
:10216A00004C630025640A001B5B481B5B324A1B58
:10217A005B334A0053656E736F72202573202853B0
:10218A006C617665290A0031006D530030006D4399
:10219A00000001020304051112131415160A0B0C90
:0421AA000D0E0F0007
:00000001FF
