S02300003230313830373032202D203220536C6176652031204D61737465722E73726563D6
S11300000C9402010C9423010C9423010C942301FD
S11300100C9423010C9423010C9423010C942301CC
S11300200C9423010C9423010C9423010C942301BC
S11300300C9423010C9423010C9423010C942301AC
S11300400C9423010C9423010C9423010C9423019C
S11300500C9423010C9423010C9423010C9423018C
S11300600C9423010C9423010C9423010C9423017C
S11300700C9423010C9423010C9423010C9423016C
S11300800C9423010C9423010C9423010C9423015C
S11300900C9423010C9423010C9423010C9423014C
S11300A00C9423010C9423010C9423010C9423013C
S11300B00C9423010C9423010C9423010C9423012C
S11300C00C9423010C9423010C9423010C9423011C
S11300D00C9423010C9423010C9423010C9423010C
S11300E00C9423010C9423010C9423010C942301FC
S11300F00C9423010C9423010C9423010C942301EC
S11301000C9423010C9423010C9423010C942301DB
S11301100C9423010C9423010C9423010C942301CB
S11301200C9423010C9423010C9423010C942301BB
S11301300C9423010C9423010C9423010C942301AB
S11301400C9423010C9423010C9423010C9423019B
S11301500C9423010C9423010C9423010C9423018B
S11301600C9423010C9423010C9423010C9423017B
S11301700C9423010C9423010C9423010C9423016B
S11301800C9423010C9423010C9423010C9423015B
S11301900C9423010C9423010C9423010C9423014B
S11301A00C9447010C9423010C9423010C94230117
S11301B00C9423010C9423010C9423010C9423012B
S11301C00C9423010C9423010C9423010C9423011B
S11301D00C9423010C9423010C9423010C94C70464
S11301E00C94F1040C9423010C9423010C9423012A
S11301F00C9423010C9423010C9423010C94A60465
S11302000C94BE0411241FBECFEFCDBFDFE5DEBFCB
S113021000E00CBF10E2A0E0B0E2E6EDF9E100E09E
S11302200BBF02C007900D92AE37B107D9F723E296
S1130230AEE7B0E201C01D92A133B207E1F70E941C
S1130240F1010C94E90C0C940000E0E5F0E08BEC77
S11302508283808188608083818183FFFDCFE0E594
S1130260F0E082EC8583808180618083818184FFDA
S1130270FDCF88ED84BF84E080934000E0E5F0E0AA
S113028080818E7F808380818D7F808308951F92FB
S11302900F920FB60F9211240BB60F921F932F9348
S11302A03F934F935F936F937F938F939F93AF93FA
S11302B0BF93EF93FF93CF93DF9300D0CDB7DEB717
S11302C0AE014D5F5F4FBE016E5F7F4FCE01019661
S11302D00E9419038B81882361F10E94D003182F97
S11302E0682F84E890E20E94BF02E12FF0E0EC570F
S11302F0FF4D10826DE170E284E890E20E94E8090B
S1130300892B29F481E290E20E94050A0CC066E37D
S113031070E284E890E20E94E809892B21F48AE3E0
S113032090E20E94050A8FE39CE90197F1F700C06F
S113033000002396CDBFDEBFDF91CF91FF91EF91F7
S1130340BF91AF919F918F917F916F915F914F91E9
S11303503F912F911F910F900BBE0F900FBE0F90E6
S11303601F9018950E947E040E945F04882321F048
S113037081E08093A50603C082E08093A5060E94D5
S1130380360468E080E30E942C0484E00E94FA03AF
S113039080E20E9408048CE00E941E0480E30E9414
S11303A0E20381E00E94EE030E94AD030E94310447
S11303B00E94C6020E94D502E0EAF6E082858064CB
S11303C0828782E0868B81858C7F8160818780E053
S11303D090E20E94370366E070E281E00E945503D8
S11303E008950E9425010E94B20160E078E488EE3D
S11303F091E00E941B05E0EAF0E082818160828343
S113040078948FE490E29F938F930E94F1098BE597
S113041090E20E94050A0E94E4020F900F90FFCF21
S11304201F93CF93DF93C0EAD6E010E21E838F714F
S11304300E9498048FEF0E9498041D83DF91CF914E
S11304401F910895DF92EF92FF920F931F93CF9322
S1130450DF937B01C42F90E29093A6068F71806294
S11304600E949804D82E8FEF8C0FCC2369F0E701FB
S1130470082F10E00F5F1F4F0E0D1F1D89910E9462
S11304809804C017D107D1F780E28093A5068D2D7B
S1130490DF91CF911F910F91FF90EF90DF9008951E
S11304A0FF920F931F93CF93DF93F62EC0EAD6E00B
S11304B010E21E838F7180620E949804082F8F2D92
S11304C00E9498041D83802FDF91CF911F910F917B
S11304D0FF900895BF92CF92DF92EF92FF920F9315
S11304E01F93CF93DF936C01C0910D201C2F6C17C9
S11304F008F4162F80918320811127C00C2F011B33
S113050080E28093A60681E60E949804B82EEE2429
S1130510EA94E10E111102C00FC000E0E601F12CD3
S11305208FEFE81AF80AEC0CFD1C8FEF0E94980478
S11305308993EC16FD06C9F7002399F0C02F8FEFBD
S11305400E949804C150D9F70CC080E28093A6069B
S113055081E60E949804B82EEE24EA94E10E11116B
S1130560DCCF80E28093A5068B2DDF91CF911F9184
S11305700F91FF90EF90DF90CF90BF9008950E946D
S11305806A0287E10E941002817008951F93CF933D
S1130590DF93C0EAD6E010E21E8382EE0E94980444
S11305A01D83DF91CF911F9108951F93CF93DF9304
S11305B0C0EAD6E010E21E8381EE0E9498041D83F7
S11305C0DF91CF911F91089580E00E94100281FD78
S11305D00CC0682F636080E00E9450028FE79EE3A6
S11305E00197F1F700C0000005C0682F616080E04A
S11305F00E9450028FE094E00197F1F700C00000E0
S113060060E787E00E94500240910C206EE770E2A0
S11306108AE00E9422020E94C6020E94D50280E85B
S11306208093A5068FE094E00197F1F700C00000E5
S11306300895EF92FF920F931F93CF93DF937C0162
S11306408B01EA0160E787E00E945002982F9072C4
S1130650F7019083982F9071F801908380748883B8
S1130660DF91CF911F910F91FF90EF900895CF9359
S1130670DF93EC0140910C20BC018AE00E9422022D
S113068040910C20BE0180E10E94220260910D2065
S1130690603220F481E10E94500204C060E281E1F2
S11306A00E945002DF91CF9108950F931F93CF932F
S11306B0DF93C82F8B01811108C040910C2050E0BA
S11306C08EE790E20E94DF0904C0873078F582301B
S11306D058F4EC2FF0E0E858FF4D40910C20B8019D
S11306E080810E94220208C0E82FF0E0E858FF4D04
S11306F041E080810E942202D0E0FE01EE58FF4DCD
S113070060910D2080810E94500282E00E941002BC
S1130710C459DF4D61E070E0088002C0660F771FA6
S11307200A94E2F7682B82E00E945002DF91CF9195
S11307301F910F9108951F93CF93DF93C0EAD6E0E2
S113074010E21E8380E50E94980483E70E949804C7
S11307501D83DF91CF911F9108958DE10E941002B6
S1130760682F64608DE10E9450028DE10E941002A6
S113077081110AC00E949B038DE10E941002682F20
S113078064608DE10E9450028CE10E941002682F87
S11307906F638CE10E94500281E08093832008956E
S11307A01F93CF93DF93C0EAD6E010E21E8380E666
S11307B00E9498048FEF0E9498041D83DF91CF91CB
S11307C01F91089588232CF0682F85E00E94500221
S11307D008956FE785E00E9450020895882329F068
S11307E06FE381E00E945002089560E081E00E947E
S11307F050020895CF93C82F86E00E941002897F8B
S1130800C670682F6C2B86E00E945002CF91089529
S1130810CF93C82F86E00E941002877D9C2F987288
S1130820682F692B86E00E94500286E00E94100225
S113083091E0C81390E0892FCF910895CF93C82FEA
S113084080E00E941002837FCC70682F6C2B80E0C4
S11308500E945002CF910895682B84E00E945002B8
S1130860089560E787E00E94500208958FE39CE9B1
S11308700197F1F700C000006FE584E00E94500288
S113088086E00E94FA0380E20E940804882319F09B
S113089081E080930E2080E00E9408048CE00E9496
S11308A01E0460E08CE10E9450028CE40E94E2038A
S11308B00E9431040E94C6020E94D5020895CF937B
S11308C0DF9384E00E941002D82F68E484E00E9441
S11308D050028FE39FE10197F1F700C0000084E02C
S11308E00E941002C82F6D2F84E00E94500281E004
S11308F0C83409F080E0DF91CF910895E0E4F6E098
S113090088E0818384E0828382E08183E0EAF6E008
S113091080E2818380E4828380E88183E0EAF8E0F6
S113092088E1848380EC8583178281E0868308953F
S11309308093A008E0EAF8E0818186FFFDCFE0EA39
S1130940F8E081818064818380810895CF93C82FEA
S113095084E291E20E94FB068823D1F3CA3029F491
S11309606DE084E291E20E9452056C2F84E291E2F0
S11309700E94520580E090E0CF91089584E291E2D4
S11309800E944105811521E09207C1F308951F9249
S11309900F920FB60F9211240BB60F922F933F9321
S11309A04F935F936F937F938F939F93AF93BF9373
S11309B0EF93FF9384E291E20E944907FF91EF9144
S11309C0BF91AF919F918F917F916F915F914F9163
S11309D03F912F910F900BBE0F900FBE0F901F9061
S11309E018951F920F920FB60F9211240BB60F9207
S11309F02F933F934F935F936F937F938F939F9323
S1130A00AF93BF93EF93FF9384E291E20E94640754
S1130A10FF91EF91BF91AF919F918F917F916F91D2
S1130A205F914F913F912F910F900BBE0F900FBE8E
S1130A300F901F901895CF92EF92FF920F931F93F0
S1130A409B01AC01C12CE12C12ECF12E01E010E071
S1130A5060EA7BE084E291E20E948C06EBE2F3E23E
S1130A608FE090E28083918382839383E0EAF0E0D5
S1130A708281816082831F910F91FF90EF90CF90CC
S1130A800895CF93DF93EC010E943107882329F066
S1130A90CE010E943C0790E002C080E091E0DF912B
S1130AA0CF9108951F93CF93DF93EC01162F0E94EB
S1130AB0FB06882321F0612FCE010E940807DF91F5
S1130AC0CF911F910895803A28E0920739F4E0E429
S1130AD0F6E088E0818384E082830895803B28E007
S1130AE0920739F4E0E4F6E080E8818380E48283CD
S1130AF00895803A29E0920739F4E0E6F6E088E0C8
S1130B00818384E082830895803B29E0920739F44D
S1130B10E0E6F6E080E8818380E482830895803A09
S1130B202AE0920739F4E0E8F6E088E0818384E083
S1130B3082830895803B2AE0920739F4E0E8F6E0E6
S1130B4080E8818380E482830895803A9B4031F475
S1130B50E0EAF6E088E0818384E0828308954F929E
S1130B605F926F927F928F929F92AF92BF92CF9239
S1130B70DF92EF92FF920F931F93CF93DF9349017C
S1130B805A012E2D2170C0E1D0E002C0D595C79541
S1130B902A95E2F700230CF042C00E9497086B01EB
S1130BA07C01DD27BE01DD0F880B990B0E9499089B
S1130BB02B013C01C501B4010E9497089B01AC01C3
S1130BC0C301B2010E9425099B01AC01C701B60112
S1130BD00E94F60720E030E040E85FE30E948907C6
S1130BE06B017C01112701950CF4109561E070E014
S1130BF002C0660F771F0A95E2F7072E000C880BD8
S1130C00990B0E9499089B01AC01C701B6010E948F
S1130C1025090E9492090E946808CB013EC00E94E7
S1130C2097086B017C01BE017727072E000C880B07
S1130C30990B0E9499082B013C01C501B4010E9443
S1130C4097089B01AC01C301B2010E9425099B01D5
S1130C50AC01C701B6010E94F6076B017C0161E09B
S1130C6070E002C0660F771F0A95E2F7072E000CAA
S1130C70880B990B0E9499089B01AC01C701B6012E
S1130C800E94F60720E030E040E85FE30E94890715
S1130C900E9492090E946808CB01DF91CF911F91B5
S1130CA00F91FF90EF90DF90CF90BF90AF909F9007
S1130CB08F907F906F905F904F9008954F925F92C6
S1130CC06F927F928F929F92AF92BF92EF920F9307
S1130CD0CF93DF932B013C0149015A01D02FC9EF77
S1130CE0ED2E0C2FA5019401C301B2010E94AF05A2
S1130CF08115904118F0CF5FC83091F78C2FDF91A8
S1130D00CF910F91EF90BF90AF909F908F907F9075
S1130D106F905F904F9008952F923F924F925F9201
S1130D206F927F928F929F92AF92BF92CF92EF92E7
S1130D30FF920F931F93CF93DF93EC011B012901C3
S1130D403A0147015801EC2C0C2DA5019401C30173
S1130D50B2010E945E06182F082FA5019401C30159
S1130D60B2010E94AF05F82E092F41E0B101CE0176
S1130D700E94ED06E881F98183E08583E881F981A9
S1130D80848180618483E881F9818481886084839B
S1130D90E881F98183818F7C80618383E881F98193
S1130DA0F682E881F9811295107F102B17838881D0
S1130DB099810E946305DF91CF911F910F91FF905C
S1130DC0EF90CF90BF90AF909F908F907F906F9057
S1130DD05F904F903F902F900895FC016083718342
S1130DE04283EC5FFD4F108231971082339610825C
S1130DF0319710820895FC01EB5FFD4F20813196FD
S1130E00308191E0920F81E0931301C080E0089556
S1130E10CF93DF93FC01DC01AB5FBD4F9C919F5FDF
S1130E2011962C9181E0921301C080E09217B1F0E9
S1130E30EF01CB5FDD4F9881DF01A90FB11DAD5FDD
S1130E40BE4F6C939F5F9883A081B18113969C9150
S1130E5013979C7F2281922B13969C93DF91CF91C1
S1130E600895FC01ED5FFD4F20813196908181E072
S1130E70291301C080E00895FC01EC5FFD4F20813F
S1130E80DC01A20FB11D13968C9190819F5F90831A
S1130E900895FC01ED5FFD4F20812F5F3196308175
S1130EA0DC01ED91FC9111974081231759F0FC016D
S1130EB0ED5FFD4F3081A30FB11D13964C9320833A
S1130EC081E0089580E00895CF93DF93FC01EA5F09
S1130ED0FD4F308131972081321307C0DC01ED9141
S1130EE0FC9183818C7F838311C0FC01EA5FFD4FF9
S1130EF02081DC01A20FB11DAD5FBE4F2C91EC012E
S1130F00A881B9812C9380818F5F8083DF91CF91F9
S1130F1008955058BB27AA270E94A1070C94EB08F8
S1130F200E94DD0838F00E94E40820F039F49F3F65
S1130F3019F426F40C94DA080EF4E095E7FB0C940B
S1130F40D408E92F0E94FC0858F3BA176207730704
S1130F508407950720F079F4A6F50C941E090EF485
S1130F60E0950B2EBA2FA02D0B01B90190010C01B5
S1130F70CA01A0011124FF27591B99F0593F50F4CD
S1130F80503E68F11A16F040A22F232F342F442725
S1130F90585FF3CF469537952795A795F04053951D
S1130FA0C9F77EF41F16BA0B620B730B840BBAF0ED
S1130FB09150A1F0FF0FBB1F661F771F881FC2F758
S1130FC00EC0BA0F621F731F841F48F4879577956C
S1130FD06795B795F7959E3F08F0B0CF9395880F26
S1130FE008F09927EE0F9795879508950E940A08AF
S1130FF00C94EB080E94E40858F00E94DD0840F0CD
S113100029F45F3F29F00C94D40851110C941F0962
S11310100C94DA080E94FC0868F39923B1F3552371
S113102091F3951B550BBB27AA27621773078407F7
S113103038F09F5F5F4F220F331F441FAA1FA9F38D
S113104035D00E2E3AF0E0E832D091505040E6957B
S1131050001CCAF72BD0FE2F29D0660F771F881FDC
S1131060BB1F261737074807AB07B0E809F0BB0BCF
S1131070802DBF01FF2793585F4F3AF09E3F5105E3
S113108078F00C94D4080C941F095F3FE4F3983E65
S1131090D4F3869577956795B795F7959F5FC9F7CC
S11310A0880F911D9695879597F90895E1E0660F4D
S11310B0771F881FBB1F621773078407BA0720F0C6
S11310C0621B730B840BBA0BEE1F88F7E09508952F
S11310D00E94040988F09F5798F0B92F9927B751B7
S11310E0B0F0E1F0660F771F881F991F1AF0BA95C8
S11310F0C9F714C0B13091F00E941E09B1E00895FF
S11311000C941E09672F782F8827B85F39F0B93FF0
S1131110CCF3869577956795B395D9F73EF490957A
S11311208095709561957F4F8F4F9F4F0895E894F8
S113113009C097FB3EF490958095709561957F4F1B
S11311408F4F9F4F9923A9F0F92F96E9BB279395C9
S1131150F695879577956795B795F111F8CFFAF4D9
S1131160BB0F11F460FF1BC06F5F7F4F8F4F9F4F0A
S113117016C0882311F096E911C0772321F09EE868
S1131180872F762F05C0662371F096E8862F70E0CE
S113119060E02AF09A95660F771F881FDAF7880FA8
S11311A09695879597F9089597F99F6780E870E079
S11311B060E008959FEF80EC089500240A941616C9
S11311C0170618060906089500240A941216130631
S11311D0140605060895092E0394000C11F48823BF
S11311E052F0BB0F40F4BF2B11F460FF04C06F5FDB
S11311F07F4F8F4F9F4F089557FD9058440F551FB1
S113120059F05F3F71F04795880F97FB991F61F084
S11312109F3F79F087950895121613061406551FFB
S1131220F2CF4695F1DF08C0161617061806991F67
S1131230F1CF86957105610508940895E894BB275C
S113124066277727CB0197F908950E9438090C94F3
S1131250EB080E94DD0838F00E94E40820F0952392
S113126011F00C94D4080C94DA0811240C941F097E
S11312700E94FC0870F3959FC1F3950F50E0551F31
S1131280629FF001729FBB27F00DB11D639FAA27D7
S1131290F00DB11DAA1F649F6627B00DA11D661F26
S11312A0829F2227B00DA11D621F739FB00DA11D47
S11312B0621F839FA00D611D221F749F3327A00D01
S11312C0611D231F849F600D211D822F762F6A2F9D
S11312D011249F5750409AF0F1F088234AF0EE0F02
S11312E0FF1FBB1F661F771F881F91505040A9F72F
S11312F09E3F510580F00C94D4080C941F095F3F65
S1131300E4F3983ED4F3869577956795B795F7956A
S1131310E7959F5FC1F7FE2B880F911D96958795E2
S113132097F908950E940409E8F09E37E8F0963989
S1131330B8F49E3848F4672F782F8827985FF9CF40
S113134086957795679593959539D0F3B62FB170B7
S11313506B0F711D811D20F4879577956795939583
S11313600C94B6090C94D1090C941F09882371F4C8
S1131370772321F09850872B762F07C0662311F42A
S113138099270DC09051862B70E060E02AF09A9561
S1131390660F771F881FDAF7880F9695879597F958
S11313A008959F3F31F0915020F487957795679584
S11313B0B795880F911D9695879597F90895FB0128
S11313C0DC0102C001900D9241505040D8F70895BD
S11313D0FB01DC018D91019080190110D9F3990B67
S11313E00895CF93DF93CDB7DEB7AE014A5F5F4F69
S11313F0FA0161917191AF0180912D2390912E2377
S11314000E94350ADF91CF9108950F931F93CF93D4
S1131410DF93E0912D23F0912E23238121FF1BC024
S11314208C01D0E0C0E0F80181918F0160912D23FF
S113143070912E23DB011896ED91FC911997882366
S113144031F01995892B79F3DFEFCFEFECCF8AE0F8
S11314501995892B19F08FEF9FEF02C08D2F9C2FC8
S1131460DF91CF911F910F9108952F923F924F9248
S11314705F926F927F928F929F92AF92BF92CF9220
S1131480DF92EF92FF920F931F93CF93DF93CDB729
S1131490DEB72B97CDBFDEBF6C017B018A01FC0157
S11314A016821782838181FFCCC1CE0101963C0153
S11314B0F6019381F70193FD859193FF81917F015B
S11314C0882309F4BAC1853239F493FD859193FFD9
S11314D081917F01853229F4B60190E00E944F0C7E
S11314E0E7CF912C212C312CFFE1F315D8F08B326E
S11314F079F038F4803279F08332A1F4232D20611D
S11315001DC08D3261F0803369F4232D216016C033
S1131510832D8260382EE32DE4603E2E2AC0F32D05
S1131520F8601DC037FC2DC020ED280F2A3040F094
S11315308E32B9F436FC81C1232D2064322E19C0B9
S113154036FE06C08AE0989E200D1124922E11C00A
S1131550EAE02E9E200D1124222EF32DF0623F2E60
S113156008C08C3621F4832D8068382E02C088365A
S113157041F4F70193FD859193FF81917F018111DE
S1131580B3CF982F9F7D9554933028F40C5F1F4F51
S11315909FE399830DC0833631F0833771F083352F
S11315A009F059C021C0F801808189830E5F1F4F63
S11315B088248394912C530113C02801F2E04F0E28
S11315C0511CF801A080B18036FE03C0692D70E083
S11315D002C06FEF7FEFC5010E94440C4C018201F1
S11315E0F32DFF773F2E16C0280122E0420E511C36
S11315F0F801A080B18036FE03C0692D70E002C0FE
S11316006FEF7FEFC5010E94390C4C01F32DF06898
S11316103F2E820133FC1BC0822D90E08816990670
S1131620B0F4B60180E290E00E944F0C2A94F4CF0B
S1131630F50137FC859137FE81915F01B60190E099
S11316400E944F0C21102A9421E0821A91088114DF
S1131650910471F7E8C0843611F0893641F5F80138
S113166037FE07C060817181828193810C5F1F4FB7
S113167008C060817181072E000C880B990B0E5FE6
S11316801F4FF32DFF763F2E97FF09C0909580954D
S1131690709561957F4F8F4F9F4FF0683F2E2AE0E2
S11316A030E0A3010E948B0C882E861845C0853734
S11316B031F4232D2F7EB22E2AE030E025C0932D65
S11316C0997FB92E8F36C1F018F4883579F0B5C0FA
S11316D0803719F0883721F0B0C0E92FE061BE2EC1
S11316E0B4FE0DC0FB2DF460BF2E09C034FE0AC049
S11316F0292F2660B22E06C028E030E005C020E184
S113170030E002C020E132E0F801B7FE07C060819A
S11317107181828193810C5F1F4F06C0608171814A
S113172080E090E00E5F1F4FA3010E948B0C882E77
S11317308618FB2DFF773F2E36FE0DC0232D2E7FFE
S1131740A22E891458F434FE0BC032FC09C0832D38
S11317508E7EA82E05C0B82CA32C03C0B82C01C0C3
S1131760B92CA4FE0FC0FE01E80DF11D8081803369
S113177021F49A2D997EA92E09C0A2FE06C0B39425
S1131780B39404C08A2D867809F0B394A3FC11C0E5
S1131790A0FE06C0B21488F4280C922C9B180EC02C
S11317A0B21460F4B60180E290E00E944F0CB3944E
S11317B0F7CFB21418F42B1802C0982C212CA4FED5
S11317C010C0B60180E390E00E944F0CA2FE17C047
S11317D0A1FC03C088E790E002C088E590E0B60170
S11317E00CC08A2D867859F0A1FE02C08BE201C09C
S11317F080E2A7FC8DE2B60190E00E944F0C8914B0
S113180038F4B60180E390E00E944F0C9A94F7CF2D
S11318108A94F301E80DF11D8081B60190E00E94E5
S11318204F0C8110F5CF222009F442CEB60180E29C
S113183090E00E944F0C2A94F6CFF601868197819E
S113184002C08FEF9FEF2B96CDBFDEBFDF91CF910C
S11318501F910F91FF90EF90DF90CF90BF90AF90CA
S11318609F908F907F906F905F904F903F902F90BC
S11318700895FC010590615070400110D8F78095DF
S113188090958E0F9F1F0895FC0161507040019048
S11318900110D8F7809590958E0F9F1F08950F9390
S11318A01F93CF93DF93FB01238121FD03C08FEFAF
S11318B09FEF2CC022FF16C04681578124813581B9
S11318C04217530744F4A081B1819D012F5F3F4F1C
S11318D0208331838C93268137812F5F3F4F26836A
S11318E0378314C08B01EC01FB010084F185E02DEA
S11318F01995892BE1F6D80116968D919C9117972D
S1131900019616968D939C931797CE01DF91CF91F4
S11319101F910F910895FA01AA27283051F120311F
S113192081F1E8946F936E7F6E5F7F4F8F4F9F4F6F
S1131930AF4FB1E03ED0B4E03CD0670F781F891FB1
S11319409A1FA11D680F791F8A1F911DA11D6A0F7F
S1131950711D811D911DA11D20D009F468943F9132
S11319602AE0269F11243019305D3193DEF6CF0131
S11319700895462F4770405D4193B3E00FD0C9F7F7
S1131980F6CF462F4F70405D4A3318F0495D31FD64
S11319904052419302D0A9F7EACFB4E0A6959795B7
S11319A0879577956795BA95C9F70097610571058D
S11319B008959B01AC010A2E0694579547953795D7
S11319C02795BA95C9F7620F731F841F951FA01D31
S10919D00895F894FFCF16
S11319D64156483031004156483032000520010056
S11319E600000300000000A604BE040000533150AA
S11319F60053656E736F72203120697320676564C6
S1131A0672756B7421005332500053656E736F7296
S1131A1620322069732067656472756B7421001B1C
S1131A265B481B5B324A1B5B334A004D617374652A
S1131A36720042494E474F2025640A000001020302
S1111A4604051112131415160A0B0C0D0E0FC5
S9030000FC
