:100000000C9402010C9423010C9423010C94230101
:100010000C9423010C9423010C9423010C942301D0
:100020000C9423010C9423010C9423010C942301C0
:100030000C9423010C9423010C9423010C942301B0
:100040000C9423010C9423010C9423010C942301A0
:100050000C9423010C9423010C9423010C94230190
:100060000C9423010C9423010C9423010C94230180
:100070000C9423010C9423010C9423010C94230170
:100080000C9423010C9423010C9423010C94230160
:100090000C9423010C9423010C9423010C94230150
:1000A0000C9423010C9423010C9423010C94230140
:1000B0000C9423010C9423010C9423010C94230130
:1000C0000C9423010C9423010C9423010C94230120
:1000D0000C9423010C9423010C9423010C94230110
:1000E0000C9423010C9423010C9423010C94230100
:1000F0000C9423010C9423010C9423010C942301F0
:100100000C9423010C9423010C9423010C942301DF
:100110000C9423010C9423010C9423010C942301CF
:100120000C9423010C9423010C9423010C942301BF
:100130000C9423010C9423010C9423010C942301AF
:100140000C9423010C9423010C9423010C9423019F
:100150000C9423010C9423010C9423010C9423018F
:100160000C9423010C9423010C9423010C9423017F
:100170000C9423010C9423010C9423010C9423016F
:100180000C9423010C9423010C9423010C9423015F
:100190000C9423010C9423010C9423010C9423014F
:1001A0000C9447010C9423010C9423010C9423011B
:1001B0000C9423010C9423010C9423010C9423012F
:1001C0000C9423010C9423010C9423010C9423011F
:1001D0000C9423010C9423010C9423010C94DC0651
:1001E0000C9406070C9423010C9423010C94230116
:1001F0000C9423010C9423010C9423010C94D3063A
:100200000C94BB0611241FBECFEFCDBFDFE5DEBFD0
:1002100000E00CBF10E2A0E0B0E2E8E2F1E200E0B2
:100220000BBF02C007900D92AA3BB107D9F723E29A
:10023000AAEBB0E201C01D92A137B207E1F70E941C
:10024000CF020C9492100C940000E0E5F0E08BECEF
:100250008283808188608083818183FFFDCFE0E598
:10026000F0E082EC8583808180618083818184FFDE
:10027000FDCF88ED84BF84E080934000E0E5F0E0AE
:1002800080818E7F808380818D7F808308951F92FF
:100290000F920FB60F9211240BB60F92AF92BF922E
:1002A000CF92DF92EF92FF920F931F932F933F9382
:1002B0004F935F936F937F938F939F93AF93BF936E
:1002C000EF93FF93CF93DF9300D0CDB7DEB7AE01AE
:1002D0004D5F5F4FBE016E5F7F4FCE0101960E9462
:1002E000DC048B81882309F485C00E949305082FC4
:1002F000682F80EC90E20E944304C02ED12CF601BE
:10030000E054FF4D108281B190E00E94240D880FCF
:10031000991FFC01E95FFF4D80819181019609F4ED
:1003200077C080EC90E20E94AE0D83E090E00E94E6
:10033000030C5C018091C0209091C120F501808365
:100340009183128283E090E00E94030C7C018091F3
:10035000C2209091C320F701808391831282C6014D
:1003600001960E94030C6C0110E0A80164EC70E29D
:100370000E94420DF601E00FF11F1082DF92CF9232
:10038000FF92EF92BF92AF9280E390E29F938F93A0
:100390000E949A0D69E470E2C7010E944B0DCDBF27
:1003A000DEBF892B19F4C6010E94AE0D6CE470E229
:1003B000C7010E944B0D892B41F4C6010E94240DF8
:1003C000992780933808909339086FE470E2C70149
:1003D0000E944B0D892B41F4C6010E94240D9927E0
:1003E00080933A0B90933B0B8FE39CE90197F1F7D5
:1003F00000C000008981882359F00E949D04EFE32A
:10040000FCE93197F1F700C0000081E080930620FD
:100410002396CDBFDEBFDF91CF91FF91EF91BF91CA
:10042000AF919F918F917F916F915F914F913F918C
:100430002F911F910F91FF90EF90DF90CF90BF9081
:10044000AF900F900BBE0F900FBE0F901F9018959E
:10045000A0E4B6E091E016969C931697E0EAF6E0E9
:1004600083E0868311969C938183E0E0F8E083E14A
:10047000818324E0208380E29EE486A397A310A6D4
:1004800011A6E0E0FBE033E33183208386A397A34A
:1004900010A611A612A613A608950E9493060E9404
:1004A0007406882321F081E08093A50603C082E0D2
:1004B0008093A5060E944B0668E080E30E94EF054A
:1004C00084E00E94BD0580E20E94CB058CE00E9482
:1004D000E10580E30E94A50581E00E94B1050E942C
:1004E00070050E9446060E944A040E945904E0EAF0
:1004F000F6E082858064828782E0868B81858C7FAE
:100500008160818783E190E20E94FA0469E170E2F0
:1005100081E00E9418050895EF92FF920F931F93B8
:10052000CF938C01C0E00F2EFBE6EF2EF3E2FF2EFF
:10053000F02D04C0F80181938F01CF5FF701808116
:1005400091810E945C0D8D30A9F7F80110828C2FEB
:10055000CF911F910F91FF90EF900895CF93DF936C
:10056000EC010E949D04FE0101900020E9F7319703
:10057000BF016C1B7D0BCE010E9440068FE39CE9FE
:100580000197F1F700C000000E9468048FE39CE926
:100590000197F1F700C00000DF91CF9108950E940C
:1005A00025010E9428020E944D0260E078E488EE56
:1005B00091E00E943007E0EAF0E08281816082836E
:1005C000789482E590E29F938F930E949A0D8EE536
:1005D00090E20E94AE0D0E9468040F900F90C4E953
:1005E000D0E205E610E2809106208823E1F380EE58
:1005F00090E20E948C0290E00097A9F3FC01E05287
:10060000FF4D10828091E020833551F50F2EF0EEE2
:10061000EF2EF0E2FF2EF02DF701818190E00E9495
:10062000240D880F991FFC01E95FFF4D2081318166
:10063000319521953109208331833F932F93FF9288
:10064000EF921F930F930E949A0D84E890E20E940C
:10065000AE020F900F900F900F900F900F90C3CF9E
:1006600080EE90E29F938F93DF93CF930E949A0D39
:1006700080EE90E20E94AE020F900F900F900F90CC
:10068000B2CF1F93CF93DF93C0EAD6E010E21E8370
:100690008F710E94AD068FEF0E94AD061D83DF9122
:1006A000CF911F910895DF92EF92FF920F931F93C6
:1006B000CF93DF937B01C42F90E29093A6068F71B6
:1006C00080620E94AD06D82E8FEF8C0FCC2369F08C
:1006D000E701082F10E00F5F1F4F0E0D1F1D8991BE
:1006E0000E94AD06C017D107D1F780E28093A5061E
:1006F0008D2DDF91CF911F910F91FF90EF90DF90A3
:100700000895FF920F931F93CF93DF93F62EC0EAC5
:10071000D6E010E21E838F7180620E94AD06082F22
:100720008F2D0E94AD061D83802FDF91CF911F91E9
:100730000F91FF900895BF92CF92DF92EF92FF92B8
:100740000F931F93CF93DF936C01842FC0912020D0
:100750001C2F6C1708F4162F9091BF20911125C003
:100760000C2F011B90E29093A6060E94AD06B82EB6
:10077000EE24EA94E10E111102C00EC000E0E60181
:10078000F12C8FEFE81AF80AEC0CFD1C89910E94FD
:10079000AD06EC16FD06D1F7002391F0C02F80E0E6
:1007A0000E94AD06C150D9F70BC090E29093A60607
:1007B0000E94AD06B82EEE24EA94E10E1111DECFB0
:1007C00080E28093A5068B2DDF91CF911F910F9131
:1007D000FF90EF90DF90CF90BF900895BF92CF929F
:1007E000DF92EF92FF920F931F93CF93DF936C01F1
:1007F000C09120201C2F6C1708F4162F8091BF2069
:10080000811127C00C2F011B80E28093A60681E690
:100810000E94AD06B82EEE24EA94E10E111102C03A
:100820000FC000E0E601F12C8FEFE81AF80AEC0C9B
:10083000FD1C8FEF0E94AD068993EC16FD06C9F7EB
:10084000002399F0C02F8FEF0E94AD06C150D9F759
:100850000CC080E28093A60681E60E94AD06B82E09
:10086000EE24EA94E10E1111DCCF80E28093A5061C
:100870008B2DDF91CF911F910F91FF90EF90DF9023
:10088000CF90BF9008950E94EE0387E10E9441033C
:10089000817008951F93CF93DF93C0EAD6E010E2F2
:1008A0001E8382EE0E94AD061D83DF91CF911F91C2
:1008B00008951F93CF93DF93C0EAD6E010E21E8322
:1008C00081EE0E94AD061D83DF91CF911F910895A7
:1008D00080E00E94410381FD0CC0682F636080E0CE
:1008E0000E9481038FE79EE30197F1F700C00000AB
:1008F00005C0682F616080E00E9481038FE094E072
:100900000197F1F700C0000060E787E00E948103D3
:1009100040911F206AEB70E28AE00E9453030E941C
:100920004A040E94590480E88093A5068FE094E071
:100930000197F1F700C00000089580E88093A606B3
:100940000E944A040E94590408950F931F93CF9365
:10095000DF93EC01162F042F80E00E94410381FDFC
:100960000DC0682F6E7F626080E00E9481038FE778
:100970009EE30197F1F700C0000005C0682F6E7F6D
:1009800080E00E9481038FE094E00197F1F700C0BE
:100990000000402F612FCE010E949B03E0EAF6E0A9
:1009A00080E885839AE69A95F1F700C08683DF9107
:1009B000CF911F910F910895EF92FF920F931F9384
:1009C000CF93DF937C018B01EA0160E787E00E940F
:1009D0008103982F9072F7019083982F9071F801FE
:1009E000908380748883DF91CF911F910F91FF9046
:1009F000EF900895CF93DF93EC0140911F20BC014D
:100A00008AE00E94530340911F20BE0180E10E94B2
:100A1000530360912020603220F481E10E94810321
:100A200004C060E281E10E948103DF91CF910895CB
:100A30000F931F93CF93DF93C82F8B01811108C0B1
:100A400040911F2050E08AEB90E20E94420D04C0CA
:100A5000873078F5823058F4EC2FF0E0EC54FF4DFD
:100A600040911F20B80180810E94530308C0E82FE5
:100A7000F0E0EC54FF4D41E080810E945303D0E050
:100A8000FE01E255FF4D6091202080810E9481038C
:100A900082E00E944103C855DF4D61E070E00880AC
:100AA00002C0660F771F0A94E2F7682B82E00E946B
:100AB0008103DF91CF911F910F9108951F93CF93E1
:100AC000DF93C0EAD6E010E21E8380E50E94AD0607
:100AD00083E70E94AD061D83DF91CF911F9108959A
:100AE0008DE10E944103682F64608DE10E948103C3
:100AF0008DE10E94410381110AC00E945E058DE1D3
:100B00000E944103682F64608DE10E9481038CE1A3
:100B10000E944103682F6F638CE10E94810381E092
:100B20008093BF2008951F93CF93DF93C0EAD6E050
:100B300010E21E8380E60E94AD068FEF0E94AD0694
:100B40001D83DF91CF911F91089588232CF0682F8A
:100B500085E00E94810308956FE785E00E9481038C
:100B60000895882329F06FE381E00E9481030895AE
:100B700060E081E00E9481030895CF93C82F86E052
:100B80000E944103897FC670682F6C2B86E00E940B
:100B90008103CF910895CF93C82F86E00E9441032F
:100BA000877D9C2F9872682F692B86E00E948103B5
:100BB00086E00E94410391E0C81390E0892FCF9115
:100BC0000895CF93C82F80E00E944103837FCC70AB
:100BD000682F6C2B80E00E948103CF910895682BD1
:100BE00084E00E948103089584E00E944103282F3D
:100BF00022952F7030E02F5F3F4F9AEF929FA00118
:100C0000939F500D11248F7090E001969C01429F9C
:100C1000C001439F900D529F900D11240895CF93D2
:100C2000DF930E94F4059C0136952795369527950C
:100C3000ABE7B4E10E94F40BEC01D695C795209781
:100C400071F087E00E9441032197EFE1F3E03197D3
:100C5000F1F700C00000807311F4209791F787E04E
:100C60000E944103C82F0E944A040E94590460E771
:100C700087E00E9481038C2F8072DF91CF910895CD
:100C800040EA0E94A5040E940F06089560E787E0ED
:100C90000E94810308958FE39CE90197F1F700C05A
:100CA00000006FE584E00E94810386E00E94BD059C
:100CB00080E20E94CB05882319F081E080932120F7
:100CC00080E00E94CB058CE00E94E10560E08CE1B1
:100CD0000E9481038CE40E94A5050E9446060E94A2
:100CE0004A040E9459040895CF93DF9384E00E9440
:100CF0004103D82F68E484E00E9481038FE39FE1E1
:100D00000197F1F700C0000084E00E944103C82F62
:100D10006D2F84E00E94810381E0C83409F080E0F7
:100D2000DF91CF910895E0E4F6E088E0818384E0EC
:100D3000828382E08183E0EAF6E080E2818380E4DE
:100D4000828380E88183E0EAF8E088E1848380ECB4
:100D50008583178281E0868308958093A008E0EA66
:100D6000F8E0818186FFFDCFE0EAF8E081818064D0
:100D7000818380810895CF93C82F80E691E20E94FD
:100D800010098823D1F3CA3029F46DE080E691E29E
:100D90000E9467076C2F80E691E20E94670780E05F
:100DA00090E0CF91089580E691E20E945607811568
:100DB00021E09207C1F308951F920F920FB60F9290
:100DC00011240BB60F922F933F934F935F936F9322
:100DD0007F938F939F93AF93BF93EF93FF9380E69F
:100DE00091E20E945E09FF91EF91BF91AF919F91B7
:100DF0008F917F916F915F914F913F912F910F90C4
:100E00000BBE0F900FBE0F901F9018951F920F9260
:100E10000FB60F9211240BB60F922F933F934F935F
:100E20005F936F937F938F939F93AF93BF93EF9352
:100E3000FF9380E691E20E947909FF91EF91BF91C3
:100E4000AF919F918F917F916F915F914F913F9162
:100E50002F910F900BBE0F900FBE0F901F90189503
:100E6000CF92EF92FF920F931F939B01AC01C12C85
:100E7000E12C12ECF12E01E010E060EA7BE080E66C
:100E800091E20E94A108EBE6F3E282E290E2808325
:100E9000918382839383E0EAF0E0828181608283A0
:100EA0001F910F91FF90EF90CF900895CF93DF9314
:100EB000EC010E944609882329F0CE010E945109C5
:100EC00090E002C080E091E0DF91CF9108951F9300
:100ED000CF93DF93EC01162F0E941009882321F095
:100EE000612FCE010E941D09DF91CF911F910895BE
:100EF000803A28E0920739F4E0E4F6E088E0818364
:100F000084E082830895803B28E0920739F4E0E48E
:100F1000F6E080E8818380E482830895803A29E0C6
:100F2000920739F4E0E6F6E088E0818384E082838A
:100F30000895803B29E0920739F4E0E6F6E080E886
:100F4000818380E482830895803A2AE0920739F40D
:100F5000E0E8F6E088E0818384E082830895803BC6
:100F60002AE0920739F4E0E8F6E080E8818380E443
:100F700082830895803A9B4031F4E0EAF6E088E00D
:100F8000818384E0828308954F925F926F927F9273
:100F90008F929F92AF92BF92CF92DF92EF92FF9289
:100FA0000F931F93CF93DF9349015A012E2D217088
:100FB000C0E1D0E002C0D595C7952A95E2F700239D
:100FC0000CF042C00E94AC0A6B017C01DD27BE011F
:100FD000DD0F880B990B0E94AE0A2B013C01C50165
:100FE000B4010E94AC0A9B01AC01C301B2010E9492
:100FF0003A0B9B01AC01C701B6010E940B0A20E02D
:1010000030E040E85FE30E949E096B017C011127FC
:1010100001950CF4109561E070E002C0660F771F37
:101020000A95E2F7072E000C880B990B0E94AE0A76
:101030009B01AC01C701B6010E943A0B0E94A70BAD
:101040000E947D0ACB013EC00E94AC0A6B017C016C
:10105000BE017727072E000C880B990B0E94AE0A61
:101060002B013C01C501B4010E94AC0A9B01AC01FB
:10107000C301B2010E943A0B9B01AC01C701B6014A
:101080000E940B0A6B017C0161E070E002C0660FF8
:10109000771F0A95E2F7072E000C880B990B0E9428
:1010A000AE0A9B01AC01C701B6010E940B0A20E009
:1010B00030E040E85FE30E949E090E94A70B0E9477
:1010C0007D0ACB01DF91CF911F910F91FF90EF909F
:1010D000DF90CF90BF90AF909F908F907F906F9058
:1010E0005F904F9008954F925F926F927F928F9290
:1010F0009F92AF92BF92EF920F93CF93DF932B010A
:101100003C0149015A01D02FC9EFED2E0C2FA5014A
:101110009401C301B2010E94C4078115904118F0E7
:10112000CF5FC83091F78C2FDF91CF910F91EF9067
:10113000BF90AF909F908F907F906F905F904F90F7
:1011400008952F923F924F925F926F927F928F926B
:101150009F92AF92BF92CF92EF92FF920F931F9305
:10116000CF93DF93EC011B0129013A01470158019C
:10117000EC2C0C2DA5019401C301B2010E9473084F
:10118000182F082FA5019401C301B2010E94C407C2
:10119000F82E092F41E0B101CE010E940209E88139
:1011A000F98183E08583E881F9818481806184838A
:1011B000E881F981848188608483E881F981838171
:1011C0008F7C80618383E881F981F682E881F981EF
:1011D0001295107F102B1783888199810E947807C0
:1011E000DF91CF911F910F91FF90EF90CF90BF9023
:1011F000AF909F908F907F906F905F904F903F90B7
:101200002F900895FC01608371834283EC5FFD4F52
:101210001082319710823396108231971082089590
:10122000FC01EB5FFD4F20813196308191E0920F00
:1012300081E0931301C080E00895CF93DF93FC0118
:10124000DC01AB5FBD4F9C919F5F11962C9181E0BB
:10125000921301C080E09217B1F0EF01CB5FDD4F38
:101260009881DF01A90FB11DAD5FBE4F6C939F5FE9
:101270009883A081B18113969C9113979C7F2281C2
:10128000922B13969C93DF91CF910895FC01ED5F13
:10129000FD4F20813196908181E0291301C080E0CB
:1012A0000895FC01EC5FFD4F2081DC01A20FB11D10
:1012B00013968C9190819F5F90830895FC01ED5F60
:1012C000FD4F20812F5F31963081DC01ED91FC9143
:1012D00011974081231759F0FC01ED5FFD4F3081DC
:1012E000A30FB11D13964C93208381E0089580E0F5
:1012F0000895CF93DF93FC01EA5FFD4F3081319772
:101300002081321307C0DC01ED91FC9183818C7F39
:10131000838311C0FC01EA5FFD4F2081DC01A20F35
:10132000B11DAD5FBE4F2C91EC01A881B9812C930A
:1013300080818F5F8083DF91CF9108955058BB27C4
:10134000AA270E94B6090C94000B0E94F20A38F0FA
:101350000E94F90A20F039F49F3F19F426F40C9406
:10136000EF0A0EF4E095E7FB0C94E90AE92F0E94DE
:10137000110B58F3BA17620773078407950720F01B
:1013800079F4A6F50C94330B0EF4E0950B2EBA2FDE
:10139000A02D0B01B90190010C01CA01A00111247B
:1013A000FF27591B99F0593F50F4503E68F11A1627
:1013B000F040A22F232F342F4427585FF3CF4695B8
:1013C00037952795A795F0405395C9F77EF41F16DA
:1013D000BA0B620B730B840BBAF09150A1F0FF0FA4
:1013E000BB1F661F771F881FC2F70EC0BA0F621F90
:1013F000731F841F48F4879577956795B795F79580
:101400009E3F08F0B0CF9395880F08F09927EE0F14
:101410009795879508950E941F0A0C94000B0E94CF
:10142000F90A58F00E94F20A40F029F45F3F29F0CF
:101430000C94E90A51110C94340B0C94EF0A0E949D
:10144000110B68F39923B1F3552391F3951B550BB9
:10145000BB27AA2762177307840738F09F5F5F4F87
:10146000220F331F441FAA1FA9F335D00E2E3AF0C6
:10147000E0E832D091505040E695001CCAF72BD0DE
:10148000FE2F29D0660F771F881FBB1F261737072F
:101490004807AB07B0E809F0BB0B802DBF01FF2761
:1014A00093585F4F3AF09E3F510578F00C94E90A4B
:1014B0000C94340B5F3FE4F3983ED4F38695779514
:1014C0006795B795F7959F5FC9F7880F911D96951A
:1014D000879597F90895E1E0660F771F881FBB1F76
:1014E000621773078407BA0720F0621B730B840B23
:1014F000BA0BEE1F88F7E09508950E94190B88F04B
:101500009F5798F0B92F9927B751B0F0E1F0660FC7
:10151000771F881F991F1AF0BA95C9F714C0B13008
:1015200091F00E94330BB1E008950C94330B672FB8
:10153000782F8827B85F39F0B93FCCF38695779537
:101540006795B395D9F73EF4909580957095619520
:101550007F4F8F4F9F4F0895E89409C097FB3EF44B
:1015600090958095709561957F4F8F4F9F4F9923F0
:10157000A9F0F92F96E9BB279395F695879577956E
:101580006795B795F111F8CFFAF4BB0F11F460FF2E
:101590001BC06F5F7F4F8F4F9F4F16C0882311F086
:1015A00096E911C0772321F09EE8872F762F05C09A
:1015B000662371F096E8862F70E060E02AF09A9535
:1015C000660F771F881FDAF7880F9695879597F92A
:1015D000089597F99F6780E870E060E008959FEFB5
:1015E00080EC089500240A941616170618060906BA
:1015F000089500240A941216130614060506089589
:10160000092E0394000C11F4882352F0BB0F40F410
:10161000BF2B11F460FF04C06F5F7F4F8F4F9F4F50
:10162000089557FD9058440F551F59F05F3F71F0D2
:101630004795880F97FB991F61F09F3F79F0879539
:101640000895121613061406551FF2CF4695F1DFC2
:1016500008C0161617061806991FF1CF8695710552
:10166000610508940895E894BB2766277727CB0186
:1016700097F908950E944D0B0C94000B0E94F20AFA
:1016800038F00E94F90A20F0952311F00C94E90A31
:101690000C94EF0A11240C94340B0E94110B70F37C
:1016A000959FC1F3950F50E0551F629FF001729F07
:1016B000BB27F00DB11D639FAA27F00DB11DAA1F16
:1016C000649F6627B00DA11D661F829F2227B00D63
:1016D000A11D621F739FB00DA11D621F839FA00DEE
:1016E000611D221F749F3327A00D611D231F849F3E
:1016F000600D211D822F762F6A2F11249F57504095
:101700009AF0F1F088234AF0EE0FFF1FBB1F661F0F
:10171000771F881F91505040A9F79E3F510580F0D8
:101720000C94E90A0C94340B5F3FE4F3983ED4F335
:10173000869577956795B795F795E7959F5FC1F77C
:10174000FE2B880F911D9695879597F908950E9415
:10175000190BE8F09E37E8F09639B8F49E3848F453
:10176000672F782F8827985FF9CF869577956795AB
:1017700093959539D0F3B62FB1706B0F711D811D04
:1017800020F487957795679593950C94CB0B0C94E3
:10179000E60B0C94340B882371F4772321F09850D6
:1017A000872B762F07C0662311F499270DC090511F
:1017B000862B70E060E02AF09A95660F771F881FED
:1017C000DAF7880F9695879597F908959F3F31F03E
:1017D000915020F4879577956795B795880F911D5F
:1017E0009695879597F90895A29FB001B39FC00180
:1017F000A39F700D811D1124911DB29F700D811D3D
:101800001124911D08950F931F93CF93DF9382307E
:10181000910510F482E090E0E0916923F0916A2351
:1018200020E030E0A0E0B0E0309719F14081518134
:101830000281138148175907C8F08417950769F486
:10184000109731F012960C93129713961C9327C0A1
:101850000093692310936A2322C02115310519F0E2
:101860004217530718F49A01BD01EF01DF01F80197
:10187000DBCF21153105F9F0281B390B2430310558
:1018800080F48A819B816115710521F0FB018283BF
:10189000938304C08093692390936A23FE01329658
:1018A00044C0FE01E20FF31F81939193225031094E
:1018B000288339833AC02091672330916823232BF2
:1018C00041F420910220309103202093672330932C
:1018D000682320910020309101202115310541F429
:1018E0002DB73EB74091042050910520241B350BA5
:1018F000E0916723F0916823E217F307A0F42E1B11
:101900003F0B2817390778F0AC014E5F5F4F241763
:10191000350748F04E0F5F1F4093672350936823AD
:101920008193919302C0E0E0F0E0CF01DF91CF918D
:101930001F910F910895CF93DF93009709F481C011
:10194000FC01329712821382A0916923B0916A231D
:10195000109781F420813181820F931F209167239A
:10196000309168232817390751F5E0936723F093E6
:10197000682367C0ED0120E030E0CE17DF0740F4B8
:101980004A815B819E0141155105F1F0EA01F5CFD5
:10199000C283D38340815181840F951FC817D90713
:1019A00059F488819981840F951F029680839183D1
:1019B0008A819B81828393832115310529F4E093E9
:1019C0006923F0936A233DC0E901EA83FB834991CF
:1019D0005991C40FD51FEC17FD0761F480819181E7
:1019E000840F951F0296E9018883998382819381F0
:1019F0008A839B83E0E0F0E012968D919C9113978F
:101A0000009719F0FD01DC01F7CF8D919C911197A2
:101A10009D012E5F3F4F820F931F209167233091CE
:101A200068232817390769F4309729F4109269233D
:101A300010926A2302C012821382A0936723B0938C
:101A40006823DF91CF910895FC0188279927E894B6
:101A500021912032E9F3293010F02E30C8F32B32D7
:101A600041F02D3239F4689404C00E94540D820F65
:101A7000911D219120532A30C0F31EF49095819539
:101A80009F4F0895FB01DC0102C001900D9241506F
:101A90005040D8F70895FB01DC018D910190801929
:101AA0000110D9F3990B08957AE0979F902D879FA5
:101AB000802D910D11240895CF93DF93EC012B819C
:101AC00020FF33C026FF0AC02F7B2B838E819F818E
:101AD00001968E839F838A8190E029C022FF0FC0E8
:101AE000E881F9818081082E000C990B009719F488
:101AF00020622B831AC03196E883F9830EC0EA85F1
:101B0000FB85199597FF09C02B81019611F080E2A2
:101B100001C080E1822B8B8308C02E813F812F5F23
:101B20003F4F2E833F83992702C08FEF9FEFDF91B6
:101B3000CF910895CF93DF93CDB7DEB7AE014A5F63
:101B40005F4FFA0161917191AF0180916D23909186
:101B50006E230E94DE0DDF91CF9108950F931F93A6
:101B6000CF93DF93E0916D23F0916E23238121FFCA
:101B70001BC08C01D0E0C0E0F80181918F01609121
:101B80006D2370916E23DB011896ED91FC911997EE
:101B9000882331F01995892B79F3DFEFCFEFECCF64
:101BA0008AE01995892B19F08FEF9FEF02C08D2FD6
:101BB0009C2FDF91CF911F910F9108952F923F920B
:101BC0004F925F926F927F928F929F92AF92BF924D
:101BD000CF92DF92EF92FF920F931F93CF93DF93F9
:101BE000CDB7DEB72B97CDBFDEBF6C017B018A017D
:101BF000FC0116821782838181FFCCC1CE01019640
:101C00003C01F6019381F70193FD859193FF81914A
:101C10007F01882309F4BAC1853239F493FD859197
:101C200093FF81917F01853229F4B60190E00E94F3
:101C3000F80FE7CF912C212C312CFFE1F315D8F0D0
:101C40008B3279F038F4803279F08332A1F4232D8D
:101C500020611DC08D3261F0803369F4232D216035
:101C600016C0832D8260382EE32DE4603E2E2AC0FC
:101C7000F32DF8601DC037FC2DC020ED280F2A3051
:101C800040F08E32B9F436FC81C1232D2064322E0F
:101C900019C036FE06C08AE0989E200D1124922EAF
:101CA00011C0EAE02E9E200D1124222EF32DF062A9
:101CB0003F2E08C08C3621F4832D8068382E02C058
:101CC000883641F4F70193FD859193FF81917F015F
:101CD0008111B3CF982F9F7D9554933028F40C5FDA
:101CE0001F4F9FE399830DC0833631F0833771F026
:101CF000833509F059C021C0F801808189830E5FC6
:101D00001F4F88248394912C530113C02801F2E0C3
:101D10004F0E511CF801A080B18036FE03C0692D22
:101D200070E002C06FEF7FEFC5010E94ED0F4C0124
:101D30008201F32DFF773F2E16C0280122E0420ECC
:101D4000511CF801A080B18036FE03C0692D70E0FF
:101D500002C06FEF7FEFC5010E94E20F4C01F32D2F
:101D6000F0683F2E820133FC1BC0822D90E0881664
:101D70009906B0F4B60180E290E00E94F80F2A9430
:101D8000F4CFF50137FC859137FE81915F01B601F3
:101D900090E00E94F80F21102A9421E0821A910805
:101DA0008114910471F7E8C0843611F0893641F549
:101DB000F80137FE07C060817181828193810C5FD9
:101DC0001F4F08C060817181072E000C880B990B92
:101DD0000E5F1F4FF32DFF763F2E97FF09C09095A2
:101DE0008095709561957F4F8F4F9F4FF0683F2E84
:101DF0002AE030E0A3010E943410882E861845C0E6
:101E0000853731F4232D2F7EB22E2AE030E025C015
:101E1000932D997FB92E8F36C1F018F4883579F05B
:101E2000B5C0803719F0883721F0B0C0E92FE061E4
:101E3000BE2EB4FE0DC0FB2DF460BF2E09C034FED3
:101E40000AC0292F2660B22E06C028E030E005C067
:101E500020E130E002C020E132E0F801B7FE07C027
:101E600060817181828193810C5F1F4F06C0608108
:101E7000718180E090E00E5F1F4FA3010E9434103B
:101E8000882E8618FB2DFF773F2E36FE0DC0232DA2
:101E90002E7FA22E891458F434FE0BC032FC09C0E8
:101EA000832D8E7EA82E05C0B82CA32C03C0B82C81
:101EB00001C0B92CA4FE0FC0FE01E80DF11D808108
:101EC000803321F49A2D997EA92E09C0A2FE06C066
:101ED000B394B39404C08A2D867809F0B394A3FC1C
:101EE00011C0A0FE06C0B21488F4280C922C9B18D6
:101EF0000EC0B21460F4B60180E290E00E94F80FC8
:101F0000B394F7CFB21418F42B1802C0982C212CDC
:101F1000A4FE10C0B60180E390E00E94F80FA2FE7C
:101F200017C0A1FC03C088E790E002C088E590E0FC
:101F3000B6010CC08A2D867859F0A1FE02C08BE252
:101F400001C080E2A7FC8DE2B60190E00E94F80F8C
:101F5000891438F4B60180E390E00E94F80F9A9457
:101F6000F7CF8A94F301E80DF11D8081B60190E06E
:101F70000E94F80F8110F5CF222009F442CEB6015D
:101F800080E290E00E94F80F2A94F6CFF601868155
:101F9000978102C08FEF9FEF2B96CDBFDEBFDF9101
:101FA000CF911F910F91FF90EF90DF90CF90BF9056
:101FB000AF909F908F907F906F905F904F903F90E9
:101FC0002F900895FC010590615070400110D8F7E2
:101FD000809590958E0F9F1F0895FC016150704071
:101FE00001900110D8F7809590958E0F9F1F08954E
:101FF0000F931F93CF93DF93FB01238121FD03C038
:102000008FEF9FEF2CC022FF16C04681578124819D
:1020100035814217530744F4A081B1819D012F5FA0
:102020003F4F208331838C93268137812F5F3F4F31
:102030002683378314C08B01EC01FB010084F185FA
:10204000E02D1995892BE1F6D80116968D919C917A
:102050001797019616968D939C931797CE01DF9153
:10206000CF911F910F910895FA01AA27283051F1BD
:10207000203181F1E8946F936E7F6E5F7F4F8F4FB9
:102080009F4FAF4FB1E03ED0B4E03CD0670F781F18
:10209000891F9A1FA11D680F791F8A1F911DA11DFD
:1020A0006A0F711D811D911DA11D20D009F4689436
:1020B0003F912AE0269F11243019305D3193DEF6DE
:1020C000CF010895462F4770405D4193B3E00FD094
:1020D000C9F7F6CF462F4F70405D4A3318F0495D7F
:1020E00031FD4052419302D0A9F7EACFB4E0A69562
:1020F0009795879577956795BA95C9F70097610584
:10210000710508959B01AC010A2E069457954795D9
:1021100037952795BA95C9F7620F731F841F951FCE
:08212000A01D0895F894FFCF03
:1021280000007123200001010001000100010001ED
:102138000001004156483031004156483032000510
:1021480020010000000300000000BB06D3060000C9
:1021580025733A20636F6D6D616E642025732C20A2
:10216800646174612025730A005066004C62004C5B
:1021780072001B5B481B5B324A1B5B334A004D6194
:102188007374657200546F67676C65642073656E5D
:10219800736F722025732C207374617475733A20E1
:1021A80025640A00546F67676C65642073656E73F5
:1021B8006F72210073656E743A2025730A004249D4
:1021C8004E474F2025640A0000010203040511123E
:0A21D800131415160A0B0C0D0E0F60
:00000001FF
