:100000000C9402010C9423010C9423010C94230101
:100010000C9423010C9423010C9423010C942301D0
:100020000C9423010C9423010C9423010C942301C0
:100030000C9423010C9423010C9423010C942301B0
:100040000C9423010C9423010C9423010C942301A0
:100050000C9423010C9423010C9423010C94230190
:100060000C9423010C9423010C9423010C94230180
:100070000C9423010C9423010C9423010C94230170
:100080000C9423010C9423010C9423010C94230160
:100090000C9423010C9423010C9423010C94230150
:1000A0000C9423010C9423010C9423010C94230140
:1000B0000C9423010C9423010C9423010C94230130
:1000C0000C9423010C9423010C9423010C94230120
:1000D0000C9423010C9423010C9423010C94230110
:1000E0000C9423010C9423010C9423010C94230100
:1000F0000C9423010C9423010C9423010C942301F0
:100100000C9423010C9423010C9423010C942301DF
:100110000C9423010C9423010C9423010C942301CF
:100120000C9423010C9423010C9423010C942301BF
:100130000C9423010C9423010C9423010C942301AF
:100140000C9423010C9423010C9423010C9423019F
:100150000C9423010C9423010C9423010C9423018F
:100160000C9423010C9423010C9423010C9423017F
:100170000C9423010C9423010C9423010C9423016F
:100180000C9423010C9423010C9423010C9423015F
:100190000C9423010C9423010C9423010C9423014F
:1001A0000C9447010C9423010C9423010C9423011B
:1001B0000C9423010C9423010C9423010C9423012F
:1001C0000C9423010C9423010C9423010C9423011F
:1001D0000C9423010C9423010C9423010C9401052D
:1001E0000C942B050C9423010C9423010C942301F3
:1001F0000C9423010C9423010C9423010C94E0042F
:100200000C94F80411241FBECFEFCDBFDFE5DEBF95
:1002100000E00CBF10E2A0E0B0E2ECE8FCE100E09E
:100220000BBF02C007900D92AE36B107D9F723E29B
:10023000AEE6B0E201C01D92A532B207E1F70E941E
:100240002B020C94440E0C940000E0E5F0E08BECE3
:100250008283808188608083818183FFFDCFE0E598
:10026000F0E082EC8583808180618083818184FFDE
:10027000FDCF88ED84BF84E080934000E0E5F0E0AE
:1002800080818E7F808380818D7F808308951F92FF
:100290000F920FB60F9211240BB60F92AF92BF922E
:1002A000CF92DF92EF92FF920F931F932F933F9382
:1002B0004F935F936F937F938F939F93AF93BF936E
:1002C000EF93FF93CF93DF9300D0CDB7DEB7AE01AE
:1002D0004D5F5F4FBE016E5F7F4FCE0101960E9462
:1002E00053038B81882309F457C00E940A04082F06
:1002F000682F84E790E20E94F90210E0F801EC58C0
:10030000FF4D108284E790E20E94600B83E090E052
:100310000E94190A5C018091742090917520F5016A
:1003200080839183128283E090E00E94190A7C010D
:100330008091762090917720F701808391831282BB
:10034000C80101960E94190A6C01A80168E770E2D1
:100350000E943A0BF601E00FF11F1082DF92CF925C
:10036000FF92EF92BF92AF9283E290E29F938F93BE
:100370000E944C0B6CE370E2C7010E94430BCDBF9F
:10038000DEBF892B19F4C6010E94600B8FE39CE944
:100390000197F1F700C000002396CDBFDEBFDF91CB
:1003A000CF91FF91EF91BF91AF919F918F917F91ED
:1003B0006F915F914F913F912F911F910F91FF90FE
:1003C000EF90DF90CF90BF90AF900F900BBE0F904B
:1003D0000FBE0F901F9018950E94B8040E949904B8
:1003E000882321F081E08093A50603C082E08093FA
:1003F000A5060E94700468E080E30E94660484E021
:100400000E94340480E20E9442048CE00E9458045E
:1004100080E30E941C0481E00E9428040E94E703FC
:100420000E946B040E9400030E940F03E0EAF6E0C2
:1004300082858064828782E0868B81858C7F816063
:10044000818786E090E20E9471036CE070E281E0B7
:100450000E948F0308950E9425010E94EC0160E034
:1004600078E488EE91E00E945505E0EAF0E08281B0
:100470008160828378948FE390E29F938F930E94B0
:100480004C0B8BE490E20E94600B0E941E030F90C5
:100490000F90FFCF1F93CF93DF93C0EAD6E010E217
:1004A0001E838F710E94D2048FEF0E94D2041D839D
:1004B000DF91CF911F910895DF92EF92FF920F93FA
:1004C0001F93CF93DF937B01C42F90E29093A606F6
:1004D0008F7180620E94D204D82E8FEF8C0FCC23B4
:1004E00069F0E701082F10E00F5F1F4F0E0D1F1D71
:1004F00089910E94D204C017D107D1F780E280937E
:10050000A5068D2DDF91CF911F910F91FF90EF9058
:10051000DF900895FF920F931F93CF93DF93F62EF2
:10052000C0EAD6E010E21E838F7180620E94D2047E
:10053000082F8F2D0E94D2041D83802FDF91CF9131
:100540001F910F91FF900895BF92CF92DF92EF928B
:10055000FF920F931F93CF93DF936C01C0911320F1
:100560001C2F6C1708F4162F80917320811127C05F
:100570000C2F011B80E28093A60681E60E94D20424
:10058000B82EEE24EA94E10E111102C00FC000E073
:10059000E601F12C8FEFE81AF80AEC0CFD1C8FEF46
:1005A0000E94D2048993EC16FD06C9F7002399F046
:1005B000C02F8FEF0E94D204C150D9F70CC080E247
:1005C0008093A60681E60E94D204B82EEE24EA9417
:1005D000E10E1111DCCF80E28093A5068B2DDF9117
:1005E000CF911F910F91FF90EF90DF90CF90BF9030
:1005F00008950E94A40287E10E944A028170089532
:100600001F93CF93DF93C0EAD6E010E21E8382EE01
:100610000E94D2041D83DF91CF911F9108951F93F3
:10062000CF93DF93C0EAD6E010E21E8381EE0E94F2
:10063000D2041D83DF91CF911F91089580E00E9425
:100640004A0281FD0CC0682F636080E00E948A022C
:100650008FE79EE30197F1F700C0000005C0682F07
:10066000616080E00E948A028FE094E00197F1F7D8
:1006700000C0000060E787E00E948A0240911220DB
:100680006EE670E28AE00E945C020E9400030E9413
:100690000F0380E88093A5068FE094E00197F1F7BF
:1006A00000C000000895EF92FF920F931F93CF9325
:1006B000DF937C018B01EA0160E787E00E948A02F8
:1006C000982F9072F7019083982F9071F801908382
:1006D00080748883DF91CF911F910F91FF90EF90ED
:1006E0000895CF93DF93EC0140911220BC018AE082
:1006F0000E945C0240911220BE0180E10E945C02D7
:1007000060911320603220F481E10E948A0204C0CB
:1007100060E281E10E948A02DF91CF9108950F93F8
:100720001F93CF93DF93C82F8B01811108C0409195
:10073000122050E08EE690E20E943A0B04C087300F
:1007400078F5823058F4EC2FF0E0E859FF4D4091F5
:100750001220B80180810E945C0208C0E82FF0E0FE
:10076000E859FF4D41E080810E945C02D0E0FE012B
:10077000EE59FF4D6091132080810E948A0282E031
:100780000E944A02C45ADF4D61E070E0088002C056
:10079000660F771F0A94E2F7682B82E00E948A02B4
:1007A000DF91CF911F910F9108951F93CF93DF9306
:1007B000C0EAD6E010E21E8380E50E94D20483E7FF
:1007C0000E94D2041D83DF91CF911F9108958DE186
:1007D0000E944A02682F64608DE10E948A028DE1C6
:1007E0000E944A0281110AC00E94D5038DE10E9435
:1007F0004A02682F64608DE10E948A028CE10E94A7
:100800004A02682F6F638CE10E948A0281E0809324
:10081000732008951F93CF93DF93C0EAD6E010E2D0
:100820001E8380E60E94D2048FEF0E94D2041D83B3
:10083000DF91CF911F91089588232CF0682F85E0D8
:100840000E948A0208956FE785E00E948A02089557
:10085000882329F06FE381E00E948A02089560E016
:1008600081E00E948A020895CF93C82F86E00E94FB
:100870004A02897FC670682F6C2B86E00E948A022C
:10088000CF910895CF93C82F86E00E944A02877DBA
:100890009C2F9872682F692B86E00E948A0286E05E
:1008A0000E944A0291E0C81390E0892FCF910895E9
:1008B000CF93C82F80E00E944A02837FCC70682FBC
:1008C0006C2B80E00E948A02CF910895682B84E00F
:1008D0000E948A02089560E787E00E948A020895D4
:1008E0008FE39CE90197F1F700C000006FE584E019
:1008F0000E948A0286E00E94340480E20E94420440
:10090000882319F081E08093142080E00E94420443
:100910008CE00E94580460E08CE10E948A028CE422
:100920000E941C040E946B040E9400030E940F039B
:100930000895CF93DF9384E00E944A02D82F68E4A1
:1009400084E00E948A028FE39FE10197F1F700C0E3
:10095000000084E00E944A02C82F6D2F84E00E94AC
:100960008A0281E0C83409F080E0DF91CF910895D8
:10097000E0E4F6E088E0818384E0828382E08183A2
:10098000E0EAF6E080E2818380E4828380E881838C
:10099000E0EAF8E088E1848380EC8583178281E0D7
:1009A000868308958093A008E0EAF8E0818186FFBD
:1009B000FDCFE0EAF8E08181806481838081089541
:1009C000CF93C82F84E191E20E9435078823D1F3A9
:1009D000CA3029F46DE084E191E20E948C056C2F0D
:1009E00084E191E20E948C0580E090E0CF9108952F
:1009F00084E191E20E947B05811521E09207C1F319
:100A000008951F920F920FB60F9211240BB60F92FA
:100A10002F933F934F935F936F937F938F939F9306
:100A2000AF93BF93EF93FF9384E191E20E9483071A
:100A3000FF91EF91BF91AF919F918F917F916F91B6
:100A40005F914F913F912F910F900BBE0F900FBE72
:100A50000F901F9018951F920F920FB60F921124AE
:100A60000BB60F922F933F934F935F936F937F93A8
:100A70008F939F93AF93BF93EF93FF9384E191E2A2
:100A80000E949E07FF91EF91BF91AF919F918F912F
:100A90007F916F915F914F913F912F910F900BBE7E
:100AA0000F900FBE0F901F901895CF92EF92FF926C
:100AB0000F931F939B01AC01C12CE12C12ECF12E82
:100AC00001E010E060EA7BE084E191E20E94C6066A
:100AD000EFE1F3E285E190E2808391838283938367
:100AE000E0EAF0E08281816082831F910F91FF90A4
:100AF000EF90CF900895CF93DF93EC010E946B07A6
:100B0000882329F0CE010E94760790E002C080E0A1
:100B100091E0DF91CF9108951F93CF93DF93EC0184
:100B2000162F0E943507882321F0612FCE010E94E5
:100B30004207DF91CF911F910895803A28E09207F4
:100B400039F4E0E4F6E088E0818384E0828308956C
:100B5000803B28E0920739F4E0E4F6E080E8818306
:100B600080E482830895803A29E0920739F4E0E630
:100B7000F6E088E0818384E082830895803B29E069
:100B8000920739F4E0E6F6E080E8818380E482832E
:100B90000895803A2AE0920739F4E0E8F6E088E028
:100BA000818384E082830895803B2AE0920739F4B0
:100BB000E0E8F6E080E8818380E482830895803A6B
:100BC0009B4031F4E0EAF6E088E0818384E08283B0
:100BD00008954F925F926F927F928F929F92AF9201
:100BE000BF92CF92DF92EF92FF920F931F93CF931A
:100BF000DF9349015A012E2D2170C0E1D0E002C0DF
:100C0000D595C7952A95E2F700230CF042C00E94C3
:100C1000D1086B017C01DD27BE01DD0F880B990B2C
:100C20000E94D3082B013C01C501B4010E94D108E8
:100C30009B01AC01C301B2010E945F099B01AC01A1
:100C4000C701B6010E94300820E030E040E85FE3D1
:100C50000E94C3076B017C01112701950CF41095CC
:100C600061E070E002C0660F771F0A95E2F7072E79
:100C7000000C880B990B0E94D3089B01AC01C701A3
:100C8000B6010E945F090E94CC090E94A208CB0114
:100C90003EC00E94D1086B017C01BE017727072E60
:100CA000000C880B990B0E94D3082B013C01C50155
:100CB000B4010E94D1089B01AC01C301B2010E94A2
:100CC0005F099B01AC01C701B6010E9430086B01AE
:100CD0007C0161E070E002C0660F771F0A95E2F7C1
:100CE000072E000C880B990B0E94D3089B01AC01C6
:100CF000C701B6010E94300820E030E040E85FE321
:100D00000E94C3070E94CC090E94A208CB01DF9178
:100D1000CF911F910F91FF90EF90DF90CF90BF90F8
:100D2000AF909F908F907F906F905F904F900895BD
:100D30004F925F926F927F928F929F92AF92BF92EB
:100D4000EF920F93CF93DF932B013C0149015A019E
:100D5000D02FC9EFED2E0C2FA5019401C301B201D4
:100D60000E94E9058115904118F0CF5FC83091F7D6
:100D70008C2FDF91CF910F91EF90BF90AF909F900C
:100D80008F907F906F905F904F9008952F923F9239
:100D90004F925F926F927F928F929F92AF92BF928B
:100DA000CF92EF92FF920F931F93CF93DF93EC01BB
:100DB0001B0129013A0147015801EC2C0C2DA5011A
:100DC0009401C301B2010E949806182F082FA501B3
:100DD0009401C301B2010E94E905F82E092F41E0F8
:100DE000B101CE010E942707E881F98183E0858364
:100DF000E881F981848180618483E881F98184813B
:100E000088608483E881F98183818F7C806183831A
:100E1000E881F981F682E881F9811295107F102B23
:100E20001783888199810E949D05DF91CF911F9141
:100E30000F91FF90EF90CF90BF90AF909F908F90C9
:100E40007F906F905F904F903F902F900895FC019E
:100E5000608371834283EC5FFD4F10823197108273
:100E600033961082319710820895FC01EB5FFD4F9D
:100E700020813196308191E0920F81E0931301C07F
:100E800080E00895CF93DF93FC01DC01AB5FBD4FA1
:100E90009C919F5F11962C9181E0921301C080E09C
:100EA0009217B1F0EF01CB5FDD4F9881DF01A90F01
:100EB000B11DAD5FBE4F6C939F5F9883A081B181E0
:100EC00013969C9113979C7F2281922B13969C934F
:100ED000DF91CF910895FC01ED5FFD4F20813196A8
:100EE000908181E0291301C080E00895FC01EC5F4E
:100EF000FD4F2081DC01A20FB11D13968C919081D2
:100F00009F5F90830895FC01ED5FFD4F20812F5F6F
:100F100031963081DC01ED91FC91119740812317CE
:100F200059F0FC01ED5FFD4F3081A30FB11D139609
:100F30004C93208381E0089580E00895CF93DF9360
:100F4000FC01EA5FFD4F308131972081321307C0E9
:100F5000DC01ED91FC9183818C7F838311C0FC01C6
:100F6000EA5FFD4F2081DC01A20FB11DAD5FBE4FD6
:100F70002C91EC01A881B9812C9380818F5F8083B3
:100F8000DF91CF9108955058BB27AA270E94DB0715
:100F90000C9425090E94170938F00E941E0920F0C0
:100FA00039F49F3F19F426F40C9414090EF4E095DB
:100FB000E7FB0C940E09E92F0E94360958F3BA1783
:100FC000620773078407950720F079F4A6F50C945F
:100FD00058090EF4E0950B2EBA2FA02D0B01B90184
:100FE00090010C01CA01A0011124FF27591B99F09F
:100FF000593F50F4503E68F11A16F040A22F232FAB
:10100000342F4427585FF3CF469537952795A795FA
:10101000F0405395C9F77EF41F16BA0B620B730BA1
:10102000840BBAF09150A1F0FF0FBB1F661F771F12
:10103000881FC2F70EC0BA0F621F731F841F48F4C7
:10104000879577956795B795F7959E3F08F0B0CF50
:101050009395880F08F09927EE0F97958795089537
:101060000E9444080C9425090E941E0958F00E9411
:10107000170940F029F45F3F29F00C940E09511133
:101080000C9459090C9414090E94360968F39923A9
:10109000B1F3552391F3951B550BBB27AA27621774
:1010A0007307840738F09F5F5F4F220F331F441F81
:1010B000AA1FA9F335D00E2E3AF0E0E832D09150B5
:1010C0005040E695001CCAF72BD0FE2F29D0660FA2
:1010D000771F881FBB1F261737074807AB07B0E8E5
:1010E00009F0BB0B802DBF01FF2793585F4F3AF0EB
:1010F0009E3F510578F00C940E090C9459095F3FFE
:10110000E4F3983ED4F3869577956795B795F79570
:101110009F5FC9F7880F911D9695879597F9089558
:10112000E1E0660F771F881FBB1F621773078407F4
:10113000BA0720F0621B730B840BBA0BEE1F88F703
:10114000E09508950E943E0988F09F5798F0B92FC6
:101150009927B751B0F0E1F0660F771F881F991FEC
:101160001AF0BA95C9F714C0B13091F00E9458092D
:10117000B1E008950C945809672F782F8827B85F3D
:1011800039F0B93FCCF3869577956795B395D9F744
:101190003EF490958095709561957F4F8F4F9F4F4E
:1011A0000895E89409C097FB3EF49095809570955A
:1011B00061957F4F8F4F9F4F9923A9F0F92F96E9A3
:1011C000BB279395F695879577956795B795F11118
:1011D000F8CFFAF4BB0F11F460FF1BC06F5F7F4FB5
:1011E0008F4F9F4F16C0882311F096E911C07723C7
:1011F00021F09EE8872F762F05C0662371F096E8D0
:10120000862F70E060E02AF09A95660F771F881F9E
:10121000DAF7880F9695879597F9089597F99F675C
:1012200080E870E060E008959FEF80EC089500246E
:101230000A941616170618060906089500240A943B
:1012400012161306140605060895092E0394000CC1
:1012500011F4882352F0BB0F40F4BF2B11F460FF50
:1012600004C06F5F7F4F8F4F9F4F089557FD905879
:10127000440F551F59F05F3F71F04795880F97FB5A
:10128000991F61F09F3F79F0879508951216130614
:101290001406551FF2CF4695F1DF08C01616170643
:1012A0001806991FF1CF8695710561050894089578
:1012B000E894BB2766277727CB0197F908950E940A
:1012C00072090C9425090E94170938F00E941E0922
:1012D00020F0952311F00C940E090C94140911249C
:1012E0000C9459090E94360970F3959FC1F3950F2C
:1012F00050E0551F629FF001729FBB27F00DB11D9A
:10130000639FAA27F00DB11DAA1F649F6627B00D29
:10131000A11D661F829F2227B00DA11D621F739F12
:10132000B00DA11D621F839FA00D611D221F749F20
:101330003327A00D611D231F849F600D211D822F67
:10134000762F6A2F11249F5750409AF0F1F088238E
:101350004AF0EE0FFF1FBB1F661F771F881F9150BB
:101360005040A9F79E3F510580F00C940E090C9453
:1013700059095F3FE4F3983ED4F3869577956795D6
:10138000B795F795E7959F5FC1F7FE2B880F911DE5
:101390009695879597F908950E943E09E8F09E3743
:1013A000E8F09639B8F49E3848F4672F782F8827EC
:1013B000985FF9CF86957795679593959539D0F392
:1013C000B62FB1706B0F711D811D20F48795779535
:1013D000679593950C94F0090C940B0A0C94590999
:1013E000882371F4772321F09850872B762F07C03C
:1013F000662311F499270DC09051862B70E060E0B0
:101400002AF09A95660F771F881FDAF7880F96954E
:10141000879597F908959F3F31F0915020F4879573
:1014200077956795B795880F911D9695879597F94C
:1014300008950F931F93CF93DF938230910510F49B
:1014400082E090E0E0911D23F0911E2320E030E047
:10145000A0E0B0E0309719F1408151810281138101
:1014600048175907C8F08417950769F4109731F0A9
:1014700012960C93129713961C9327C000931D236A
:1014800010931E2322C02115310519F0421753076E
:1014900018F49A01BD01EF01DF01F801DBCF21153E
:1014A0003105F9F0281B390B2430310580F48A818D
:1014B0009B816115710521F0FB018283938304C038
:1014C00080931D2390931E23FE01329644C0FE019B
:1014D000E20FF31F819391932250310928833983BE
:1014E0003AC020911B2330911C23232B41F42091DF
:1014F00002203091032020931B2330931C23209142
:101500000020309101202115310541F42DB73EB75F
:101510004091042050910520241B350BE0911B23A2
:10152000F0911C23E217F307A0F42E1B3F0B2817A2
:10153000390778F0AC014E5F5F4F2417350748F04C
:101540004E0F5F1F40931B2350931C238193919355
:1015500002C0E0E0F0E0CF01DF91CF911F910F9149
:101560000895CF93DF93009709F481C0FC0132976F
:1015700012821382A0911D23B0911E23109781F433
:1015800020813181820F931F20911B2330911C23D6
:101590002817390751F5E0931B23F0931C2367C0EC
:1015A000ED0120E030E0CE17DF0740F44A815B8197
:1015B0009E0141155105F1F0EA01F5CFC283D383B5
:1015C00040815181840F951FC817D90759F488812C
:1015D0009981840F951F0296808391838A819B81D4
:1015E000828393832115310529F4E0931D23F09321
:1015F0001E233DC0E901EA83FB8349915991C40F41
:10160000D51FEC17FD0761F480819181840F951F30
:101610000296E90188839983828193818A839B83DF
:10162000E0E0F0E012968D919C911397009719F0ED
:10163000FD01DC01F7CF8D919C9111979D012E5FEB
:101640003F4F820F931F20911B2330911C2328179B
:10165000390769F4309729F410921D2310921E2344
:1016600002C012821382A0931B23B0931C23DF912C
:10167000CF910895FB01DC0102C001900D92415011
:101680005040D8F70895FB01DC018D91019080193D
:101690000110D9F3990B0895CF93DF93CDB7DEB73F
:1016A000AE014A5F5F4FFA0161917191AF01809184
:1016B0002123909122230E94900BDF91CF910895D6
:1016C0000F931F93CF93DF93E0912123F091222377
:1016D000238121FF1BC08C01D0E0C0E0F801819183
:1016E0008F016091212370912223DB011896ED91E7
:1016F000FC911997882331F01995892B79F3DFEF45
:10170000CFEFECCF8AE01995892B19F08FEF9FEF7F
:1017100002C08D2F9C2FDF91CF911F910F910895C3
:101720002F923F924F925F926F927F928F929F92F1
:10173000AF92BF92CF92DF92EF92FF920F931F93DF
:10174000CF93DF93CDB7DEB72B97CDBFDEBF6C0154
:101750007B018A01FC0116821782838181FFCCC143
:10176000CE0101963C01F6019381F70193FD85912D
:1017700093FF81917F01882309F4BAC1853239F43E
:1017800093FD859193FF81917F01853229F4B60104
:1017900090E00E94AA0DE7CF912C212C312CFFE183
:1017A000F315D8F08B3279F038F4803279F0833247
:1017B000A1F4232D20611DC08D3261F0803369F4C6
:1017C000232D216016C0832D8260382EE32DE46026
:1017D0003E2E2AC0F32DF8601DC037FC2DC020ED31
:1017E000280F2A3040F08E32B9F436FC81C1232D07
:1017F0002064322E19C036FE06C08AE0989E200D65
:101800001124922E11C0EAE02E9E200D1124222ECA
:10181000F32DF0623F2E08C08C3621F4832D8068B2
:10182000382E02C0883641F4F70193FD859193FF6D
:1018300081917F018111B3CF982F9F7D9554933073
:1018400028F40C5F1F4F9FE399830DC0833631F05E
:10185000833771F0833509F059C021C0F8018081C8
:1018600089830E5F1F4F88248394912C530113C0EA
:101870002801F2E04F0E511CF801A080B18036FE25
:1018800003C0692D70E002C06FEF7FEFC5010E94B9
:101890009F0D4C018201F32DFF773F2E16C02801CA
:1018A00022E0420E511CF801A080B18036FE03C038
:1018B000692D70E002C06FEF7FEFC5010E94940DAB
:1018C0004C01F32DF0683F2E820133FC1BC0822DAA
:1018D00090E088169906B0F4B60180E290E00E948C
:1018E000AA0D2A94F4CFF50137FC859137FE81913A
:1018F0005F01B60190E00E94AA0D21102A9421E018
:10190000821A91088114910471F7E8C0843611F0AD
:10191000893641F5F80137FE07C060817181828107
:1019200093810C5F1F4F08C060817181072E000CEE
:10193000880B990B0E5F1F4FF32DFF763F2E97FFFD
:1019400009C090958095709561957F4F8F4F9F4FFF
:10195000F0683F2E2AE030E0A3010E94E60D882EB9
:10196000861845C0853731F4232D2F7EB22E2AE00C
:1019700030E025C0932D997FB92E8F36C1F018F431
:10198000883579F0B5C0803719F0883721F0B0C0BC
:10199000E92FE061BE2EB4FE0DC0FB2DF460BF2E1A
:1019A00009C034FE0AC0292F2660B22E06C028E0E6
:1019B00030E005C020E130E002C020E132E0F80173
:1019C000B7FE07C060817181828193810C5F1F4FD8
:1019D00006C06081718180E090E00E5F1F4FA3011F
:1019E0000E94E60D882E8618FB2DFF773F2E36FECF
:1019F0000DC0232D2E7FA22E891458F434FE0BC067
:101A000032FC09C0832D8E7EA82E05C0B82CA32CD5
:101A100003C0B82C01C0B92CA4FE0FC0FE01E80D14
:101A2000F11D8081803321F49A2D997EA92E09C061
:101A3000A2FE06C0B394B39404C08A2D867809F040
:101A4000B394A3FC11C0A0FE06C0B21488F4280C05
:101A5000922C9B180EC0B21460F4B60180E290E0A4
:101A60000E94AA0DB394F7CFB21418F42B1802C039
:101A7000982C212CA4FE10C0B60180E390E00E94B7
:101A8000AA0DA2FE17C0A1FC03C088E790E002C027
:101A900088E590E0B6010CC08A2D867859F0A1FE49
:101AA00002C08BE201C080E2A7FC8DE2B60190E0AB
:101AB0000E94AA0D891438F4B60180E390E00E94D8
:101AC000AA0D9A94F7CF8A94F301E80DF11D808155
:101AD000B60190E00E94AA0D8110F5CF222009F4F2
:101AE00042CEB60180E290E00E94AA0D2A94F6CF81
:101AF000F6018681978102C08FEF9FEF2B96CDBFB5
:101B0000DEBFDF91CF911F910F91FF90EF90DF909B
:101B1000CF90BF90AF909F908F907F906F905F908D
:101B20004F903F902F900895FC01059061507040B8
:101B30000110D8F7809590958E0F9F1F0895FC0196
:101B40006150704001900110D8F7809590958E0FEC
:101B50009F1F08950F931F93CF93DF93FB01238162
:101B600021FD03C08FEF9FEF2CC022FF16C04681DE
:101B70005781248135814217530744F4A081B181F4
:101B80009D012F5F3F4F208331838C9326813781C6
:101B90002F5F3F4F2683378314C08B01EC01FB017D
:101BA0000084F185E02D1995892BE1F6D801169670
:101BB0008D919C911797019616968D939C931797EC
:101BC000CE01DF91CF911F910F910895FA01AA27BD
:101BD000283051F1203181F1E8946F936E7F6E5F70
:101BE0007F4F8F4F9F4FAF4FB1E03ED0B4E03CD01E
:101BF000670F781F891F9A1FA11D680F791F8A1F01
:101C0000911DA11D6A0F711D811D911DA11D20D067
:101C100009F468943F912AE0269F11243019305D21
:101C20003193DEF6CF010895462F4770405D419312
:101C3000B3E00FD0C9F7F6CF462F4F70405D4A335F
:101C400018F0495D31FD4052419302D0A9F7EACF27
:101C5000B4E0A6959795879577956795BA95C9F756
:101C600000976105710508959B01AC010A2E069449
:101C70005795479537952795BA95C9F7620F731F02
:0C1C8000841F951FA01D0895F894FFCF4D
:101C8C000000252320004156483031004156483091
:101C9C0032000520010000000300000000E004F801
:101CAC0004000025733A20636F6D6D616E6420250E
:101CBC00732C20646174612025730A005066001B2C
:101CCC005B481B5B324A1B5B334A004D6173746586
:101CDC00720042494E474F2025640A00000102035E
:0E1CEC0004051112131415160A0B0C0D0E0F21
:00000001FF
