:100000000C9402010C9423010C9423010C94230101
:100010000C9423010C9423010C9423010C942301D0
:100020000C9423010C9423010C9423010C942301C0
:100030000C9423010C9423010C9423010C942301B0
:100040000C9423010C9423010C9423010C942301A0
:100050000C9423010C9423010C9423010C94230190
:100060000C9423010C9423010C9423010C94230180
:100070000C9423010C9423010C9423010C94230170
:100080000C9423010C9423010C9423010C94230160
:100090000C9423010C9423010C9423010C94230150
:1000A0000C9423010C9423010C9423010C94230140
:1000B0000C9423010C9423010C9423010C94230130
:1000C0000C9423010C9423010C9423010C94230120
:1000D0000C9423010C9423010C9423010C94230110
:1000E0000C9423010C9423010C9423010C94230100
:1000F0000C9423010C9423010C9423010C942301F0
:100100000C9423010C9423010C9423010C942301DF
:100110000C9423010C9423010C9423010C942301CF
:100120000C9423010C9423010C9423010C942301BF
:100130000C9423010C9423010C9423010C942301AF
:100140000C9423010C9423010C9423010C9423019F
:100150000C9423010C9423010C9423010C9423018F
:100160000C9423010C9423010C9423010C9423017F
:100170000C9423010C9423010C9423010C9423016F
:100180000C9423010C9423010C9423010C9423015F
:100190000C9423010C9423010C9423010C9423014F
:1001A0000C9447010C9423010C9423010C9423011B
:1001B0000C9423010C9423010C9423010C9423012F
:1001C0000C9423010C9423010C9423010C9423011F
:1001D0000C9423010C9423010C9423010C94F0063D
:1001E0000C941A070C9423010C9423010C94230102
:1001F0000C9423010C9423010C9423010C94CF063E
:100200000C94E70611241FBECFEFCDBFDFE5DEBFA4
:1002100000E00CBF10E2A0E0B0E2E8EFF0E200E0A6
:100220000BBF02C007900D92A03DB107D9F723E2A2
:10023000A0EDB0E201C01D92A738B207E1F70E941D
:10024000F4020C947A100C940000E0E5F0E08BECE2
:100250008283808188608083818183FFFDCFE0E598
:10026000F0E082EC8583808180618083818184FFDE
:10027000FDCF88ED84BF84E080934000E0E5F0E0AE
:1002800080818E7F808380818D7F808308951F92FF
:100290000F920FB60F9211240BB60F92CF92DF92EE
:1002A000EF92FF920F931F932F933F934F935F9380
:1002B0006F937F938F939F93AF93BF93EF93FF932E
:1002C000CF93DF9300D0CDB7DEB7AE014D5F5F4F68
:1002D000BE016E5F7F4FCE0101960E94F0048B81BC
:1002E000882309F488C00E94A705082F682F86ED8F
:1002F00090E20E945704E02EF12CF701EA52FF4DE4
:100300001082E091D720F0E0EE0FFF1FE955F04E8C
:1003100080819181019609F47CC083E090E00E9485
:10032000170C2091D6203091D720FC0120833183F7
:10033000128283E090E00E94170C6C018091D8201B
:100340009091D920F601808391831282C701019692
:100350000E94170C7C0110E0A8016AED70E20E9477
:10036000560DF701E00FF11F108260E370E2C60145
:100370000E946A0D892B19F4C7010E94960D63E350
:1003800070E2C6010E946A0D892BA1F4C7010E9488
:10039000380D892B41F086E390E20E94960D84E0AF
:1003A0008093650607C089E490E20E94960D84E080
:1003B0008093660668E670E2C6010E946A0D892B8A
:1003C000A1F4C7010E94380D892B41F08BE690E221
:1003D0000E94960D82E08093650607C08FE790E249
:1003E0000E94960D82E0809366068FE39CE9019758
:1003F000F1F700C000008981882359F00E94B10400
:10040000EFE3FCE93197F1F700C0000081E0809351
:1004100006202396CDBFDEBFDF91CF91FF91EF91F4
:10042000BF91AF919F918F917F916F915F914F910C
:100430003F912F911F910F91FF90EF90DF90CF9000
:100440000F900BBE0F900FBE0F901F901895E0E617
:10045000F6E088E0828388E1838B84E0818392E008
:100460009183A0E4B6E021E016962C931697E0EA7B
:10047000F6E093E0968311962C939183E0E0F8E008
:1004800093E19183808320E23EE426A337A310A664
:1004900011A6E0E0FBE093E39183808326A337A3DA
:1004A00010A611A612A613A608950E94A7060E94E0
:1004B0008806882321F081E08093A50603C082E0AE
:1004C0008093A5060E945F0668E080E30E94030611
:1004D00084E00E94D10580E20E94DF058CE00E944A
:1004E000F50580E30E94B90581E00E94C5050E94E0
:1004F00084050E945A060E945E040E946D04E0EA90
:10050000F6E082858064828782E0868B81858C7F9D
:100510008160818783E190E20E940E0569E170E2CB
:1005200081E00E942C050895EF92FF920F931F9394
:10053000CF93DF938C01EB01FC0101900020E9F7E0
:100540003197CF01801B910BFB0101900020E9F74F
:100550003197E61BF70B8E0F9F1F01960E94170C19
:100560007C01B8010E94730DBE01C7010E945F0D9E
:10057000C701DF91CF911F910F91FF90EF900895E8
:10058000EF92FF920F931F93CF93DF938C017B0128
:10059000EA010E94B104B701C8010E949402BE01A1
:1005A0000E949402FC0101900020E9F73197BF01FD
:1005B000681B790B0E9454062FEF89EF90E02150C1
:1005C00080409040E1F700C000000E947C048FE36F
:1005D0009CE90197F1F700C00000DF91CF911F91D6
:1005E0000F91FF90EF9008950E9425010E9427022D
:1005F0000E94550260E078E488EE91E00E94440792
:10060000E0EAF0E0828181608283789482EA90E27D
:100610009F938F930E94820D8EEA90E20E94960D26
:100620000E947C040F900F9001E010E021E030E088
:10063000C8E6D6E0809106208823E1F3888183FD17
:100640002BC0232B49F42FEF8FE19EE421508040F3
:100650009040E1F700C000000130110549F44CEB77
:1006600050E265EB70E288EB90E20E94C00208C0A5
:100670004BEB50E265EB70E288EB90E20E94C00227
:100680002FEF89EF90E0215080409040E1F700C0CB
:10069000000021E030E0CECF2115310559F211954F
:1006A0000195110920E030E0C5CF1F93CF93DF9370
:1006B000C0EAD6E010E21E838F710E94C1068FEF60
:1006C0000E94C1061D83DF91CF911F910895DF9293
:1006D000EF92FF920F931F93CF93DF937B01C42F71
:1006E00090E29093A6068F7180620E94C106D82E78
:1006F0008FEF8C0FCC2369F0E701082F10E00F5F1C
:100700001F4F0E0D1F1D89910E94C106C017D107F2
:10071000D1F780E28093A5068D2DDF91CF911F91B7
:100720000F91FF90EF90DF900895FF920F931F932A
:10073000CF93DF93F62EC0EAD6E010E21E838F71CE
:1007400080620E94C106082F8F2D0E94C1061D8362
:10075000802FDF91CF911F910F91FF900895BF924D
:10076000CF92DF92EF92FF920F931F93CF93DF937D
:100770006C01842FC09120201C2F6C1708F4162FB9
:100780009091D520911125C00C2F011B90E29093E0
:10079000A6060E94C106B82EEE24EA94E10E1111BD
:1007A00002C00EC000E0E601F12C8FEFE81AF80A53
:1007B000EC0CFD1C89910E94C106EC16FD06D1F7D8
:1007C000002391F0C02F80E00E94C106C150D9F7EC
:1007D0000BC090E29093A6060E94C106B82EEE24AC
:1007E000EA94E10E1111DECF80E28093A5068B2DF5
:1007F000DF91CF911F910F91FF90EF90DF90CF90FD
:10080000BF900895BF92CF92DF92EF92FF920F9325
:100810001F93CF93DF936C01C09120201C2F6C1786
:1008200008F4162F8091D520811127C00C2F011BB1
:1008300080E28093A60681E60E94C106B82EEE24CF
:10084000EA94E10E111102C00FC000E0E601F12CA4
:100850008FEFE81AF80AEC0CFD1C8FEF0E94C1061E
:100860008993EC16FD06C9F7002399F0C02F8FEF8E
:100870000E94C106C150D9F70CC080E28093A60641
:1008800081E60E94C106B82EEE24EA94E10E111111
:10089000DCCF80E28093A5068B2DDF91CF911F9155
:1008A0000F91FF90EF90DF90CF90BF9008950E943E
:1008B000020487E10E945503817008951F93CF932E
:1008C000DF93C0EAD6E010E21E8382EE0E94C106EA
:1008D0001D83DF91CF911F9108951F93CF93DF93D5
:1008E000C0EAD6E010E21E8381EE0E94C1061D839D
:1008F000DF91CF911F91089580E00E94550381FD03
:100900000CC0682F636080E00E9495038FE79EE330
:100910000197F1F700C0000005C0682F616080E01A
:100920000E9495038FE094E00197F1F700C000006A
:1009300060E787E00E94950340911F2060ED70E220
:100940008AE00E9467030E945E040E946D0480E8B2
:100950008093A5068FE094E00197F1F700C00000B6
:10096000089580E88093A6060E945E040E946D04AC
:1009700008950F931F93CF93DF93EC01162F042F4D
:1009800080E00E94550381FD0DC0682F6E7F62607C
:1009900080E00E9495038FE79EE30197F1F700C086
:1009A000000005C0682F6E7F80E00E9495038FE0F5
:1009B00094E00197F1F700C00000402F612FCE01B5
:1009C0000E94AF03E0EAF6E080E885839AE69A9514
:1009D000F1F700C08683DF91CF911F910F910895A9
:1009E000EF92FF920F931F93CF93DF937C018B01C4
:1009F000EA0160E787E00E949503982F9072F70163
:100A00009083982F9071F801908380748883DF9190
:100A1000CF911F910F91FF90EF900895CF93DF93A7
:100A2000EC0140911F20BC018AE00E9467034091C5
:100A30001F20BE0180E10E94670360912020603288
:100A400020F481E10E94950304C060E281E10E94EC
:100A50009503DF91CF9108950F931F93CF93DF9369
:100A6000C82F8B01811108C040911F2050E080EDFC
:100A700090E20E94560D04C0873078F5823058F419
:100A8000EC2FF0E0E653FF4D40911F20B80180812C
:100A90000E94670308C0E82FF0E0E653FF4D41E0F5
:100AA00080810E946703D0E0FE01EC53FF4D60910E
:100AB000202080810E94950382E00E945503C25449
:100AC000DF4D61E070E0088002C0660F771F0A9476
:100AD000E2F7682B82E00E949503DF91CF911F918E
:100AE0000F9108951F93CF93DF93C0EAD6E010E2F1
:100AF0001E8380E50E94C10683E70E94C1061D8314
:100B0000DF91CF911F9108958DE10E945503682FC9
:100B100064608DE10E9495038DE10E94550381116F
:100B20000AC00E9472058DE10E945503682F64601F
:100B30008DE10E9495038CE10E945503682F6F633D
:100B40008CE10E94950381E08093D52008951F9346
:100B5000CF93DF93C0EAD6E010E21E8380E60E94C6
:100B6000C1068FEF0E94C1061D83DF91CF911F91B7
:100B7000089588232CF0682F85E00E94950308953E
:100B80006FE785E00E9495030895882329F06FE3BD
:100B900081E00E949503089560E081E00E94950342
:100BA0000895CF93C82F86E00E945503897FC670B1
:100BB000682F6C2B86E00E949503CF910895CF9308
:100BC000C82F86E00E945503877D9C2F9872682F5E
:100BD000692B86E00E94950386E00E94550391E010
:100BE000C81390E0892FCF910895CF93C82F80E04C
:100BF0000E945503837FCC70682F6C2B80E00E948D
:100C00009503CF910895682B84E00E949503089581
:100C100084E00E945503282F22952F7030E02F5F2B
:100C20003F4F9AEF929FA001939F500D11248F7018
:100C300090E001969C01429FC001439F900D529FFE
:100C4000900D11240895CF93DF930E9408069C0114
:100C50003695279536952795ABE7B4E10E94080CA9
:100C6000EC01D695C795209771F087E00E94550357
:100C70002197EFE1F3E03197F1F700C000008073B6
:100C800011F4209791F787E00E945503C82F0E9426
:100C90005E040E946D0460E787E00E9495038C2F3C
:100CA0008072DF91CF91089540EA0E94B9040E94BA
:100CB0002306089560E787E00E94950308958FE377
:100CC0009CE90197F1F700C000006FE584E00E9405
:100CD000950386E00E94D10580E20E94DF0588230B
:100CE00019F081E08093212080E00E94DF058CE0F4
:100CF0000E94F50560E08CE10E9495038CE40E945F
:100D0000B9050E945A060E945E040E946D0408956F
:100D1000CF93DF9384E00E945503D82F68E484E0EA
:100D20000E9495038FE39FE10197F1F700C0000057
:100D300084E00E945503C82F6D2F84E00E94950324
:100D400081E0C83409F080E0DF91CF910895E0E4BC
:100D5000F6E088E0818384E0828382E08183E0EAB8
:100D6000F6E080E2818380E4828380E88183E0EAA8
:100D7000F8E088E1848380EC8583178281E08683B4
:100D800008958093A008E0EAF8E0818186FFFDCF16
:100D9000E0EAF8E081818064818380810895CF93C7
:100DA000C82F86E791E20E9424098823D1F3CA3034
:100DB00029F46DE086E791E20E947B076C2F86E7BD
:100DC00091E20E947B0780E090E0CF91089586E752
:100DD00091E20E946A07811521E09207C1F308950C
:100DE0001F920F920FB60F9211240BB60F922F93F2
:100DF0003F934F935F936F937F938F939F93AF93A3
:100E0000BF93EF93FF9386E791E20E947209FF91EF
:100E1000EF91BF91AF919F918F917F916F915F9172
:100E20004F913F912F910F900BBE0F900FBE0F90DF
:100E30001F9018951F920F920FB60F9211240BB6A8
:100E40000F922F933F934F935F936F937F938F9363
:100E50009F93AF93BF93EF93FF9386E791E20E9436
:100E60008D09FF91EF91BF91AF919F918F917F91EC
:100E70006F915F914F913F912F910F900BBE0F900B
:100E80000FBE0F901F901895CF92EF92FF920F9385
:100E90001F939B01AC01C12CE12C12ECF12E01E05F
:100EA00010E060EA7BE086E791E20E94B508E1E8A5
:100EB000F3E282E290E28083918382839383E0EA8B
:100EC000F0E08281816082831F910F91FF90EF900B
:100ED000CF900895CF93DF93EC010E945A098823A5
:100EE00029F0CE010E94650990E002C080E091E007
:100EF000DF91CF9108951F93CF93DF93EC01162FCD
:100F00000E942409882321F0612FCE010E9431091B
:100F1000DF91CF911F910895803A28E0920739F42C
:100F2000E0E4F6E088E0818384E082830895803BFA
:100F300028E0920739F4E0E4F6E080E8818380E479
:100F400082830895803A29E0920739F4E0E6F6E0DA
:100F500088E0818384E082830895803B29E09207C2
:100F600039F4E0E6F6E080E8818380E48283089546
:100F7000803A2AE0920739F4E0E8F6E088E08183DD
:100F800084E082830895803B2AE0920739F4E0E808
:100F9000F6E080E8818380E482830895803A9B4074
:100FA00031F4E0EAF6E088E0818384E0828308950A
:100FB0004F925F926F927F928F929F92AF92BF9269
:100FC000CF92DF92EF92FF920F931F93CF93DF9315
:100FD00049015A012E2D2170C0E1D0E002C0D59503
:100FE000C7952A95E2F700230CF042C00E94C00A80
:100FF0006B017C01DD27BE01DD0F880B990B0E9480
:10100000C20A2B013C01C501B4010E94C00A9B0128
:10101000AC01C301B2010E944E0B9B01AC01C701A0
:10102000B6010E941F0A20E030E040E85FE30E9422
:10103000B2096B017C01112701950CF4109561E058
:1010400070E002C0660F771F0A95E2F7072E000CCA
:10105000880B990B0E94C20A9B01AC01C701B60123
:101060000E944E0B0E94BB0B0E94910ACB013EC016
:101070000E94C00A6B017C01BE017727072E000C7D
:10108000880B990B0E94C20A2B013C01C501B401D7
:101090000E94C00A9B01AC01C301B2010E944E0B29
:1010A0009B01AC01C701B6010E941F0A6B017C01C4
:1010B00061E070E002C0660F771F0A95E2F7072E25
:1010C000000C880B990B0E94C20A9B01AC01C7015E
:1010D000B6010E941F0A20E030E040E85FE30E9472
:1010E000B2090E94BB0B0E94910ACB01DF91CF9104
:1010F0001F910F91FF90EF90DF90CF90BF90AF9036
:101100009F908F907F906F905F904F9008954F9237
:101110005F926F927F928F929F92AF92BF92EF9267
:101120000F93CF93DF932B013C0149015A01D02F3C
:10113000C9EFED2E0C2FA5019401C301B2010E944D
:10114000D8078115904118F0CF5FC83091F78C2FE8
:10115000DF91CF910F91EF90BF90AF909F908F90C4
:101160007F906F905F904F9008952F923F924F9293
:101170005F926F927F928F929F92AF92BF92CF9227
:10118000EF92FF920F931F93CF93DF93EC011B011C
:1011900029013A0147015801EC2C0C2DA5019401BD
:1011A000C301B2010E948708182F082FA5019401DE
:1011B000C301B2010E94D807F82E092F41E0B10106
:1011C000CE010E941609E881F98183E08583E881D8
:1011D000F981848180618483E881F98184818860D8
:1011E0008483E881F98183818F7C80618383E881B6
:1011F000F981F682E881F9811295107F102B17830F
:10120000888199810E948C07DF91CF911F910F9166
:10121000FF90EF90CF90BF90AF909F908F907F9076
:101220006F905F904F903F902F900895FC016083E6
:1012300071834283EC5FFD4F1082319710823396A9
:101240001082319710820895FC01EB5FFD4F2081E1
:101250003196308191E0920F81E0931301C080E0DC
:101260000895CF93DF93FC01DC01AB5FBD4F9C91F0
:101270009F5F11962C9181E0921301C080E092173C
:10128000B1F0EF01CB5FDD4F9881DF01A90FB11DF8
:10129000AD5FBE4F6C939F5F9883A081B181139621
:1012A0009C9113979C7F2281922B13969C93DF91A4
:1012B000CF910895FC01ED5FFD4F20813196908123
:1012C00081E0291301C080E00895FC01EC5FFD4F2F
:1012D0002081DC01A20FB11D13968C9190819F5F3C
:1012E00090830895FC01ED5FFD4F20812F5F3196C3
:1012F0003081DC01ED91FC9111974081231759F069
:10130000FC01ED5FFD4F3081A30FB11D13964C938F
:10131000208381E0089580E00895CF93DF93FC015E
:10132000EA5FFD4F308131972081321307C0DC0125
:10133000ED91FC9183818C7F838311C0FC01EA5F76
:10134000FD4F2081DC01A20FB11DAD5FBE4F2C917E
:10135000EC01A881B9812C9380818F5F8083DF911C
:10136000CF9108955058BB27AA270E94CA090C9410
:10137000140B0E94060B38F00E940D0B20F039F47C
:101380009F3F19F426F40C94030B0EF4E095E7FB51
:101390000C94FD0AE92F0E94250B58F3BA17620737
:1013A00073078407950720F079F4A6F50C94470B92
:1013B0000EF4E0950B2EBA2FA02D0B01B901900170
:1013C0000C01CA01A0011124FF27591B99F0593FB4
:1013D00050F4503E68F11A16F040A22F232F342FFC
:1013E0004427585FF3CF469537952795A795F0404A
:1013F0005395C9F77EF41F16BA0B620B730B840B5F
:10140000BAF09150A1F0FF0FBB1F661F771F881F16
:10141000C2F70EC0BA0F621F731F841F48F487956E
:1014200077956795B795F7959E3F08F0B0CF939560
:10143000880F08F09927EE0F9795879508950E94D9
:10144000330A0C94140B0E940D0B58F00E94060BEB
:1014500040F029F45F3F29F00C94FD0A51110C94DF
:10146000480B0C94030B0E94250B68F39923B1F3EE
:10147000552391F3951B550BBB27AA2762177307BA
:10148000840738F09F5F5F4F220F331F441FAA1F4E
:10149000A9F335D00E2E3AF0E0E832D0915050400A
:1014A000E695001CCAF72BD0FE2F29D0660F771FB8
:1014B000881FBB1F261737074807AB07B0E809F09E
:1014C000BB0B802DBF01FF2793585F4F3AF09E3F23
:1014D000510578F00C94FD0A0C94480B5F3FE4F33F
:1014E000983ED4F3869577956795B795F7959F5F66
:1014F000C9F7880F911D9695879597F90895E1E0B2
:10150000660F771F881FBB1F621773078407BA0710
:1015100020F0621B730B840BBA0BEE1F88F7E0956B
:1015200008950E942D0B88F09F5798F0B92F9927A6
:10153000B751B0F0E1F0660F771F881F991F1AF0BE
:10154000BA95C9F714C0B13091F00E94470BB1E0D1
:1015500008950C94470B672F782F8827B85F39F0D0
:10156000B93FCCF3869577956795B395D9F73EF457
:1015700090958095709561957F4F8F4F9F4F0895FF
:10158000E89409C097FB3EF490958095709561951D
:101590007F4F8F4F9F4F9923A9F0F92F96E9BB27D3
:1015A0009395F695879577956795B795F111F8CF4F
:1015B000FAF4BB0F11F460FF1BC06F5F7F4F8F4FBA
:1015C0009F4F16C0882311F096E911C0772321F0B0
:1015D0009EE8872F762F05C0662371F096E8862F48
:1015E00070E060E02AF09A95660F771F881FDAF79F
:1015F000880F9695879597F9089597F99F6780E8E2
:1016000070E060E008959FEF80EC089500240A9454
:101610001616170618060906089500240A941216CD
:101620001306140605060895092E0394000C11F400
:10163000882352F0BB0F40F4BF2B11F460FF04C0AD
:101640006F5F7F4F8F4F9F4F089557FD9058440F06
:10165000551F59F05F3F71F04795880F97FB991F11
:1016600061F09F3F79F087950895121613061406CE
:10167000551FF2CF4695F1DF08C01616170618065B
:10168000991FF1CF86957105610508940895E89436
:10169000BB2766277727CB0197F908950E94610B36
:1016A0000C94140B0E94060B38F00E940D0B20F0D6
:1016B000952311F00C94FD0A0C94030B11240C9447
:1016C000480B0E94250B70F3959FC1F3950F50E0D6
:1016D000551F629FF001729FBB27F00DB11D639FE4
:1016E000AA27F00DB11DAA1F649F6627B00DA11D8A
:1016F000661F829F2227B00DA11D621F739FB00D30
:10170000A11D621F839FA00D611D221F749F33279F
:10171000A00D611D231F849F600D211D822F762F38
:101720006A2F11249F5750409AF0F1F088234AF015
:10173000EE0FFF1FBB1F661F771F881F9150504081
:10174000A9F79E3F510580F00C94FD0A0C94480BBC
:101750005F3FE4F3983ED4F3869577956795B79508
:10176000F795E7959F5FC1F7FE2B880F911D969522
:10177000879597F908950E942D0BE8F09E37E8F0C1
:101780009639B8F49E3848F4672F782F8827985FE9
:10179000F9CF86957795679593959539D0F3B62FC0
:1017A000B1706B0F711D811D20F48795779567953A
:1017B00093950C94DF0B0C94FA0B0C94480B882334
:1017C00071F4772321F09850872B762F07C066237A
:1017D00011F499270DC09051862B70E060E02AF03B
:1017E0009A95660F771F881FDAF7880F9695879569
:1017F00097F908959F3F31F0915020F487957795A0
:101800006795B795880F911D9695879597F90895D7
:10181000A29FB001B39FC001A39F700D811D112431
:10182000911DB29F700D811D1124911D08950F937C
:101830001F93CF93DF938230910510F482E090E004
:10184000E0917F23F091802320E030E0A0E0B0E041
:10185000309719F14081518102811381481759074E
:10186000C8F08417950769F4109731F012960C931D
:10187000129713961C9327C000937F231093802305
:1018800022C02115310519F04217530718F49A01A7
:10189000BD01EF01DF01F801DBCF21153105F9F0C2
:1018A000281B390B2430310580F48A819B81611516
:1018B000710521F0FB018283938304C080937F2311
:1018C00090938023FE01329644C0FE01E20FF31F85
:1018D0008193919322503109288339833AC0209112
:1018E0007D2330917E23232B41F4209102203091DF
:1018F000032020937D2330937E232091002030917C
:1019000001202115310541F42DB73EB74091042047
:1019100050910520241B350BE0917D23F0917E230F
:10192000E217F307A0F42E1B3F0B2817390778F0B6
:10193000AC014E5F5F4F2417350748F04E0F5F1F15
:1019400040937D2350937E238193919302C0E0E0E6
:10195000F0E0CF01DF91CF911F910F910895CF93C8
:10196000DF93009709F481C0FC0132971282138241
:10197000A0917F23B0918023109781F42081318141
:10198000820F931F20917D2330917E2328173907E2
:1019900051F5E0937D23F0937E2367C0ED0120E0B5
:1019A00030E0CE17DF0740F44A815B819E0141158C
:1019B0005105F1F0EA01F5CFC283D3834081518113
:1019C000840F951FC817D90759F488819981840F0E
:1019D000951F0296808391838A819B818283938362
:1019E0002115310529F4E0937F23F09380233DC036
:1019F000E901EA83FB8349915991C40FD51FEC1784
:101A0000FD0761F480819181840F951F0296E901A1
:101A100088839983828193818A839B83E0E0F0E0CD
:101A200012968D919C911397009719F0FD01DC019E
:101A3000F7CF8D919C9111979D012E5F3F4F820FA3
:101A4000931F20917D2330917E232817390769F455
:101A5000309729F410927F231092802302C01282C3
:101A60001382A0937D23B0937E23DF91CF910895BD
:101A7000FC0188279927E89421912032E9F3293045
:101A800010F02E30C8F32B3241F02D3239F4689427
:101A900004C00E947A0D820F911D219120532A309B
:101AA000C0F31EF4909581959F4F0895FB01DC01D2
:101AB00002C001900D9241505040D8F70895FB01AB
:101AC000DC010D900020E9F7119701900D920020A4
:101AD000E1F70895FB01DC018D910190801901105F
:101AE000D9F3990B0895FB01DC0101900D920020C0
:101AF000E1F708957AE0979F902D879F802D910DB3
:101B000011240895CF93DF93CDB7DEB7AE014A5FBE
:101B10005F4FFA0161917191AF01809183239091A0
:101B200084230E94C60DDF91CF9108950F931F93D8
:101B3000CF93DF93E0918323F0918423238121FFCE
:101B40001BC08C01D0E0C0E0F80181918F01609151
:101B5000832370918423DB011896ED91FC911997F2
:101B6000882331F01995892B79F3DFEFCFEFECCF94
:101B70008AE01995892B19F08FEF9FEF02C08D2F06
:101B80009C2FDF91CF911F910F9108952F923F923B
:101B90004F925F926F927F928F929F92AF92BF927D
:101BA000CF92DF92EF92FF920F931F93CF93DF9329
:101BB000CDB7DEB72B97CDBFDEBF6C017B018A01AD
:101BC000FC0116821782838181FFCCC1CE01019670
:101BD0003C01F6019381F70193FD859193FF81917B
:101BE0007F01882309F4BAC1853239F493FD8591C8
:101BF00093FF81917F01853229F4B60190E00E9424
:101C0000E00FE7CF912C212C312CFFE1F315D8F018
:101C10008B3279F038F4803279F08332A1F4232DBD
:101C200020611DC08D3261F0803369F4232D216065
:101C300016C0832D8260382EE32DE4603E2E2AC02C
:101C4000F32DF8601DC037FC2DC020ED280F2A3081
:101C500040F08E32B9F436FC81C1232D2064322E3F
:101C600019C036FE06C08AE0989E200D1124922EDF
:101C700011C0EAE02E9E200D1124222EF32DF062D9
:101C80003F2E08C08C3621F4832D8068382E02C088
:101C9000883641F4F70193FD859193FF81917F018F
:101CA0008111B3CF982F9F7D9554933028F40C5F0A
:101CB0001F4F9FE399830DC0833631F0833771F056
:101CC000833509F059C021C0F801808189830E5FF6
:101CD0001F4F88248394912C530113C02801F2E0F4
:101CE0004F0E511CF801A080B18036FE03C0692D53
:101CF00070E002C06FEF7FEFC5010E94D50F4C016D
:101D00008201F32DFF773F2E16C0280122E0420EFC
:101D1000511CF801A080B18036FE03C0692D70E02F
:101D200002C06FEF7FEFC5010E94CA0F4C01F32D77
:101D3000F0683F2E820133FC1BC0822D90E0881694
:101D40009906B0F4B60180E290E00E94E00F2A9478
:101D5000F4CFF50137FC859137FE81915F01B60123
:101D600090E00E94E00F21102A9421E0821A91084D
:101D70008114910471F7E8C0843611F0893641F579
:101D8000F80137FE07C060817181828193810C5F09
:101D90001F4F08C060817181072E000C880B990BC2
:101DA0000E5F1F4FF32DFF763F2E97FF09C09095D2
:101DB0008095709561957F4F8F4F9F4FF0683F2EB4
:101DC0002AE030E0A3010E941C10882E861845C02E
:101DD000853731F4232D2F7EB22E2AE030E025C046
:101DE000932D997FB92E8F36C1F018F4883579F08C
:101DF000B5C0803719F0883721F0B0C0E92FE06115
:101E0000BE2EB4FE0DC0FB2DF460BF2E09C034FE03
:101E10000AC0292F2660B22E06C028E030E005C097
:101E200020E130E002C020E132E0F801B7FE07C057
:101E300060817181828193810C5F1F4F06C0608138
:101E4000718180E090E00E5F1F4FA3010E941C1083
:101E5000882E8618FB2DFF773F2E36FE0DC0232DD2
:101E60002E7FA22E891458F434FE0BC032FC09C018
:101E7000832D8E7EA82E05C0B82CA32C03C0B82CB1
:101E800001C0B92CA4FE0FC0FE01E80DF11D808138
:101E9000803321F49A2D997EA92E09C0A2FE06C096
:101EA000B394B39404C08A2D867809F0B394A3FC4C
:101EB00011C0A0FE06C0B21488F4280C922C9B1806
:101EC0000EC0B21460F4B60180E290E00E94E00F10
:101ED000B394F7CFB21418F42B1802C0982C212C0D
:101EE000A4FE10C0B60180E390E00E94E00FA2FEC5
:101EF00017C0A1FC03C088E790E002C088E590E02D
:101F0000B6010CC08A2D867859F0A1FE02C08BE282
:101F100001C080E2A7FC8DE2B60190E00E94E00FD4
:101F2000891438F4B60180E390E00E94E00F9A949F
:101F3000F7CF8A94F301E80DF11D8081B60190E09E
:101F40000E94E00F8110F5CF222009F442CEB601A5
:101F500080E290E00E94E00F2A94F6CFF60186819D
:101F6000978102C08FEF9FEF2B96CDBFDEBFDF9131
:101F7000CF911F910F91FF90EF90DF90CF90BF9086
:101F8000AF909F908F907F906F905F904F903F9019
:101F90002F900895FC010590615070400110D8F712
:101FA000809590958E0F9F1F0895FC0161507040A1
:101FB00001900110D8F7809590958E0F9F1F08957E
:101FC0000F931F93CF93DF93FB01238121FD03C068
:101FD0008FEF9FEF2CC022FF16C0468157812481CE
:101FE00035814217530744F4A081B1819D012F5FD1
:101FF0003F4F208331838C93268137812F5F3F4F62
:102000002683378314C08B01EC01FB010084F1852A
:10201000E02D1995892BE1F6D80116968D919C91AA
:102020001797019616968D939C931797CE01DF9183
:10203000CF911F910F910895FA01AA27283051F1ED
:10204000203181F1E8946F936E7F6E5F7F4F8F4FE9
:102050009F4FAF4FB1E03ED0B4E03CD0670F781F48
:10206000891F9A1FA11D680F791F8A1F911DA11D2D
:102070006A0F711D811D911DA11D20D009F4689466
:102080003F912AE0269F11243019305D3193DEF60E
:10209000CF010895462F4770405D4193B3E00FD0C4
:1020A000C9F7F6CF462F4F70405D4A3318F0495DAF
:1020B00031FD4052419302D0A9F7EACFB4E0A69592
:1020C0009795879577956795BA95C9F700976105B4
:1020D000710508959B01AC010A2E0694579547950A
:1020E00037952795BA95C9F7620F731F841F951FFF
:0820F000A01D0895F894FFCF34
:1020F8000000872320000101000100010001000108
:102108000001004156483031004156483032000540
:1021180020010000000300000000CF06E7060000D1
:102128005066006D5300524F4F4B2047454445546D
:10213800454354454552442100446520726F6F6BF6
:10214800206973206E696574206D65657220616110
:102158006E77657A696721006D4300434F204745D4
:1021680048414C544520544520484F4F472100438F
:102178004F20676568616C74652077656572206EAD
:102188006F726D61616C210042494E474F20256492
:102198000A001B5B481B5B324A1B5B334A004D61DC
:1021A80073746572004C63005350002D31000001B8
:1021B800020304051112131415160A0B0C0D0E0F49
:00000001FF
